{
	"data": {
		"bytecode": {
			"linkReferences": {},
			"object": "608060405260ff600160006101000a81548160ff021916908360ff16021790555060106001806101000a81548160ff021916908360ff16021790555034801561004757600080fd5b50610272806100576000396000f3fe608060405234801561001057600080fd5b50600436106100575760003560e01c806306540f7e1461005c57806355b1ac8a1461007a5780637d1ff3c414610084578063d244ef2a1461008e578063e492fd8414610098575b600080fd5b6100646100b4565b6040516100719190610123565b60405180910390f35b6100826100ba565b005b61008c6100d3565b005b6100966100ec565b005b6100b260048036038101906100ad919061016f565b610100565b005b60005481565b6000808154809291906100cc906101cb565b9190505550565b6000808154809291906100e590610213565b9190505550565b600080815480929190600190039190505550565b8060008190555050565b6000819050919050565b61011d8161010a565b82525050565b60006020820190506101386000830184610114565b92915050565b600080fd5b61014c8161010a565b811461015757600080fd5b50565b60008135905061016981610143565b92915050565b6000602082840312156101855761018461013e565b5b60006101938482850161015a565b91505092915050565b7f4e487b7100000000000000000000000000000000000000000000000000000000600052601160045260246000fd5b60006101d68261010a565b91507fffffffffffffffffffffffffffffffffffffffffffffffffffffffffffffffff82036102085761020761019c565b5b600182019050919050565b600061021e8261010a565b9150600082036102315761023061019c565b5b60018203905091905056fea2646970667358221220ff8f208352aeb742d04107af63d2cc746cce1515b41253b04584776f1d800d8164736f6c63430008110033",
			"opcodes": "PUSH1 0x80 PUSH1 0x40 MSTORE PUSH1 0xFF PUSH1 0x1 PUSH1 0x0 PUSH2 0x100 EXP DUP2 SLOAD DUP2 PUSH1 0xFF MUL NOT AND SWAP1 DUP4 PUSH1 0xFF AND MUL OR SWAP1 SSTORE POP PUSH1 0x10 PUSH1 0x1 DUP1 PUSH2 0x100 EXP DUP2 SLOAD DUP2 PUSH1 0xFF MUL NOT AND SWAP1 DUP4 PUSH1 0xFF AND MUL OR SWAP1 SSTORE POP CALLVALUE DUP1 ISZERO PUSH2 0x47 JUMPI PUSH1 0x0 DUP1 REVERT JUMPDEST POP PUSH2 0x272 DUP1 PUSH2 0x57 PUSH1 0x0 CODECOPY PUSH1 0x0 RETURN INVALID PUSH1 0x80 PUSH1 0x40 MSTORE CALLVALUE DUP1 ISZERO PUSH2 0x10 JUMPI PUSH1 0x0 DUP1 REVERT JUMPDEST POP PUSH1 0x4 CALLDATASIZE LT PUSH2 0x57 JUMPI PUSH1 0x0 CALLDATALOAD PUSH1 0xE0 SHR DUP1 PUSH4 0x6540F7E EQ PUSH2 0x5C JUMPI DUP1 PUSH4 0x55B1AC8A EQ PUSH2 0x7A JUMPI DUP1 PUSH4 0x7D1FF3C4 EQ PUSH2 0x84 JUMPI DUP1 PUSH4 0xD244EF2A EQ PUSH2 0x8E JUMPI DUP1 PUSH4 0xE492FD84 EQ PUSH2 0x98 JUMPI JUMPDEST PUSH1 0x0 DUP1 REVERT JUMPDEST PUSH2 0x64 PUSH2 0xB4 JUMP JUMPDEST PUSH1 0x40 MLOAD PUSH2 0x71 SWAP2 SWAP1 PUSH2 0x123 JUMP JUMPDEST PUSH1 0x40 MLOAD DUP1 SWAP2 SUB SWAP1 RETURN JUMPDEST PUSH2 0x82 PUSH2 0xBA JUMP JUMPDEST STOP JUMPDEST PUSH2 0x8C PUSH2 0xD3 JUMP JUMPDEST STOP JUMPDEST PUSH2 0x96 PUSH2 0xEC JUMP JUMPDEST STOP JUMPDEST PUSH2 0xB2 PUSH1 0x4 DUP1 CALLDATASIZE SUB DUP2 ADD SWAP1 PUSH2 0xAD SWAP2 SWAP1 PUSH2 0x16F JUMP JUMPDEST PUSH2 0x100 JUMP JUMPDEST STOP JUMPDEST PUSH1 0x0 SLOAD DUP2 JUMP JUMPDEST PUSH1 0x0 DUP1 DUP2 SLOAD DUP1 SWAP3 SWAP2 SWAP1 PUSH2 0xCC SWAP1 PUSH2 0x1CB JUMP JUMPDEST SWAP2 SWAP1 POP SSTORE POP JUMP JUMPDEST PUSH1 0x0 DUP1 DUP2 SLOAD DUP1 SWAP3 SWAP2 SWAP1 PUSH2 0xE5 SWAP1 PUSH2 0x213 JUMP JUMPDEST SWAP2 SWAP1 POP SSTORE POP JUMP JUMPDEST PUSH1 0x0 DUP1 DUP2 SLOAD DUP1 SWAP3 SWAP2 SWAP1 PUSH1 0x1 SWAP1 SUB SWAP2 SWAP1 POP SSTORE POP JUMP JUMPDEST DUP1 PUSH1 0x0 DUP2 SWAP1 SSTORE POP POP JUMP JUMPDEST PUSH1 0x0 DUP2 SWAP1 POP SWAP2 SWAP1 POP JUMP JUMPDEST PUSH2 0x11D DUP2 PUSH2 0x10A JUMP JUMPDEST DUP3 MSTORE POP POP JUMP JUMPDEST PUSH1 0x0 PUSH1 0x20 DUP3 ADD SWAP1 POP PUSH2 0x138 PUSH1 0x0 DUP4 ADD DUP5 PUSH2 0x114 JUMP JUMPDEST SWAP3 SWAP2 POP POP JUMP JUMPDEST PUSH1 0x0 DUP1 REVERT JUMPDEST PUSH2 0x14C DUP2 PUSH2 0x10A JUMP JUMPDEST DUP2 EQ PUSH2 0x157 JUMPI PUSH1 0x0 DUP1 REVERT JUMPDEST POP JUMP JUMPDEST PUSH1 0x0 DUP2 CALLDATALOAD SWAP1 POP PUSH2 0x169 DUP2 PUSH2 0x143 JUMP JUMPDEST SWAP3 SWAP2 POP POP JUMP JUMPDEST PUSH1 0x0 PUSH1 0x20 DUP3 DUP5 SUB SLT ISZERO PUSH2 0x185 JUMPI PUSH2 0x184 PUSH2 0x13E JUMP JUMPDEST JUMPDEST PUSH1 0x0 PUSH2 0x193 DUP5 DUP3 DUP6 ADD PUSH2 0x15A JUMP JUMPDEST SWAP2 POP POP SWAP3 SWAP2 POP POP JUMP JUMPDEST PUSH32 0x4E487B7100000000000000000000000000000000000000000000000000000000 PUSH1 0x0 MSTORE PUSH1 0x11 PUSH1 0x4 MSTORE PUSH1 0x24 PUSH1 0x0 REVERT JUMPDEST PUSH1 0x0 PUSH2 0x1D6 DUP3 PUSH2 0x10A JUMP JUMPDEST SWAP2 POP PUSH32 0xFFFFFFFFFFFFFFFFFFFFFFFFFFFFFFFFFFFFFFFFFFFFFFFFFFFFFFFFFFFFFFFF DUP3 SUB PUSH2 0x208 JUMPI PUSH2 0x207 PUSH2 0x19C JUMP JUMPDEST JUMPDEST PUSH1 0x1 DUP3 ADD SWAP1 POP SWAP2 SWAP1 POP JUMP JUMPDEST PUSH1 0x0 PUSH2 0x21E DUP3 PUSH2 0x10A JUMP JUMPDEST SWAP2 POP PUSH1 0x0 DUP3 SUB PUSH2 0x231 JUMPI PUSH2 0x230 PUSH2 0x19C JUMP JUMPDEST JUMPDEST PUSH1 0x1 DUP3 SUB SWAP1 POP SWAP2 SWAP1 POP JUMP INVALID LOG2 PUSH5 0x6970667358 0x22 SLT KECCAK256 SELFDESTRUCT DUP16 KECCAK256 DUP4 MSTORE 0xAE 0xB7 TIMESTAMP 0xD0 COINBASE SMOD 0xAF PUSH4 0xD2CC746C 0xCE ISZERO ISZERO 0xB4 SLT MSTORE8 0xB0 GASLIMIT DUP5 PUSH24 0x6F1D800D8164736F6C634300081100330000000000000000 "
		},
		"gasEstimates": {
			"creation": {
				"codeDepositCost": "125200",
				"executionCost": "48755",
				"totalCost": "173955"
			},
			"external": {
				"decrementMyUint()": "24523",
				"decrementMyUintUnchecked()": "24428",
				"incrementMyUint()": "24501",
				"myUint()": "2407",
				"setMyUint(uint256)": "22586"
			}
		},
		"methodIdentifiers": {
			"decrementMyUint()": "7d1ff3c4",
			"decrementMyUintUnchecked()": "d244ef2a",
			"incrementMyUint()": "55b1ac8a",
			"myUint()": "06540f7e",
			"setMyUint(uint256)": "e492fd84"
		}
	},
	"abi": [
		{
			"inputs": [],
			"name": "decrementMyUint",
			"outputs": [],
			"stateMutability": "nonpayable",
			"type": "function"
		},
		{
			"inputs": [],
			"name": "decrementMyUintUnchecked",
			"outputs": [],
			"stateMutability": "nonpayable",
			"type": "function"
		},
		{
			"inputs": [],
			"name": "incrementMyUint",
			"outputs": [],
			"stateMutability": "nonpayable",
			"type": "function"
		},
		{
			"inputs": [],
			"name": "myUint",
			"outputs": [
				{
					"internalType": "uint256",
					"name": "",
					"type": "uint256"
				}
			],
			"stateMutability": "view",
			"type": "function"
		},
		{
			"inputs": [
				{
					"internalType": "uint256",
					"name": "_myUint",
					"type": "uint256"
				}
			],
			"name": "setMyUint",
			"outputs": [],
			"stateMutability": "nonpayable",
			"type": "function"
		}
	]
}