{
	"contracts/Examples/ExampleWrapAround.sol": {
		"ExampleWrapAround": {
			"abi": [
				{
					"inputs": [],
					"name": "decrementMyUint",
					"outputs": [],
					"stateMutability": "nonpayable",
					"type": "function"
				},
				{
					"inputs": [],
					"name": "incrementMyUint",
					"outputs": [],
					"stateMutability": "nonpayable",
					"type": "function"
				},
				{
					"inputs": [],
					"name": "myToThePowerOfInt8",
					"outputs": [
						{
							"internalType": "uint8",
							"name": "",
							"type": "uint8"
						}
					],
					"stateMutability": "view",
					"type": "function"
				},
				{
					"inputs": [],
					"name": "myUint",
					"outputs": [
						{
							"internalType": "uint256",
							"name": "",
							"type": "uint256"
						}
					],
					"stateMutability": "view",
					"type": "function"
				},
				{
					"inputs": [],
					"name": "myUint8",
					"outputs": [
						{
							"internalType": "uint8",
							"name": "",
							"type": "uint8"
						}
					],
					"stateMutability": "view",
					"type": "function"
				},
				{
					"inputs": [
						{
							"internalType": "uint256",
							"name": "_myUint",
							"type": "uint256"
						}
					],
					"name": "setMyUint",
					"outputs": [],
					"stateMutability": "nonpayable",
					"type": "function"
				}
			],
			"devdoc": {
				"kind": "dev",
				"methods": {},
				"version": 1
			},
			"evm": {
				"assembly": "    /* \"contracts/Examples/ExampleWrapAround.sol\":62:925  contract ExampleWrapAround {... */\n  mstore(0x40, 0x80)\n    /* \"contracts/Examples/ExampleWrapAround.sol\":163:166  255 */\n  0xff\n    /* \"contracts/Examples/ExampleWrapAround.sol\":140:166  uint8 public myUint8 = 255 */\n  0x01\n  exp(0x0100, 0x00)\n  dup2\n  sload\n  dup2\n  0xff\n  mul\n  not\n  and\n  swap1\n  dup4\n  0xff\n  and\n  mul\n  or\n  swap1\n  sstore\n  pop\n    /* \"contracts/Examples/ExampleWrapAround.sol\":293:297  2**4 */\n  0x10\n    /* \"contracts/Examples/ExampleWrapAround.sol\":259:297  uint8 public myToThePowerOfInt8 = 2**4 */\n  0x01\n  dup1\n  0x0100\n  exp\n  dup2\n  sload\n  dup2\n  0xff\n  mul\n  not\n  and\n  swap1\n  dup4\n  0xff\n  and\n  mul\n  or\n  swap1\n  sstore\n  pop\n    /* \"contracts/Examples/ExampleWrapAround.sol\":62:925  contract ExampleWrapAround {... */\n  callvalue\n  dup1\n  iszero\n  tag_1\n  jumpi\n  0x00\n  dup1\n  revert\ntag_1:\n  pop\n  dataSize(sub_0)\n  dup1\n  dataOffset(sub_0)\n  0x00\n  codecopy\n  0x00\n  return\nstop\n\nsub_0: assembly {\n        /* \"contracts/Examples/ExampleWrapAround.sol\":62:925  contract ExampleWrapAround {... */\n      mstore(0x40, 0x80)\n      callvalue\n      dup1\n      iszero\n      tag_1\n      jumpi\n      0x00\n      dup1\n      revert\n    tag_1:\n      pop\n      jumpi(tag_2, lt(calldatasize, 0x04))\n      shr(0xe0, calldataload(0x00))\n      dup1\n      0x06540f7e\n      eq\n      tag_3\n      jumpi\n      dup1\n      0x55b1ac8a\n      eq\n      tag_4\n      jumpi\n      dup1\n      0x7d1ff3c4\n      eq\n      tag_5\n      jumpi\n      dup1\n      0x8d766c10\n      eq\n      tag_6\n      jumpi\n      dup1\n      0xe2a4b2af\n      eq\n      tag_7\n      jumpi\n      dup1\n      0xe492fd84\n      eq\n      tag_8\n      jumpi\n    tag_2:\n      0x00\n      dup1\n      revert\n        /* \"contracts/Examples/ExampleWrapAround.sol\":96:114  uint public myUint */\n    tag_3:\n      tag_9\n      tag_10\n      jump\t// in\n    tag_9:\n      mload(0x40)\n      tag_11\n      swap2\n      swap1\n      tag_12\n      jump\t// in\n    tag_11:\n      mload(0x40)\n      dup1\n      swap2\n      sub\n      swap1\n      return\n        /* \"contracts/Examples/ExampleWrapAround.sol\":791:852  function incrementMyUint() public {... */\n    tag_4:\n      tag_13\n      tag_14\n      jump\t// in\n    tag_13:\n      stop\n        /* \"contracts/Examples/ExampleWrapAround.sol\":860:922  function decrementMyUint() public {... */\n    tag_5:\n      tag_15\n      tag_16\n      jump\t// in\n    tag_15:\n      stop\n        /* \"contracts/Examples/ExampleWrapAround.sol\":259:297  uint8 public myToThePowerOfInt8 = 2**4 */\n    tag_6:\n      tag_17\n      tag_18\n      jump\t// in\n    tag_17:\n      mload(0x40)\n      tag_19\n      swap2\n      swap1\n      tag_20\n      jump\t// in\n    tag_19:\n      mload(0x40)\n      dup1\n      swap2\n      sub\n      swap1\n      return\n        /* \"contracts/Examples/ExampleWrapAround.sol\":140:166  uint8 public myUint8 = 255 */\n    tag_7:\n      tag_21\n      tag_22\n      jump\t// in\n    tag_21:\n      mload(0x40)\n      tag_23\n      swap2\n      swap1\n      tag_20\n      jump\t// in\n    tag_23:\n      mload(0x40)\n      dup1\n      swap2\n      sub\n      swap1\n      return\n        /* \"contracts/Examples/ExampleWrapAround.sol\":306:381  function setMyUint(uint _myUint) public {... */\n    tag_8:\n      tag_24\n      0x04\n      dup1\n      calldatasize\n      sub\n      dup2\n      add\n      swap1\n      tag_25\n      swap2\n      swap1\n      tag_26\n      jump\t// in\n    tag_25:\n      tag_27\n      jump\t// in\n    tag_24:\n      stop\n        /* \"contracts/Examples/ExampleWrapAround.sol\":96:114  uint public myUint */\n    tag_10:\n      sload(0x00)\n      dup2\n      jump\t// out\n        /* \"contracts/Examples/ExampleWrapAround.sol\":791:852  function incrementMyUint() public {... */\n    tag_14:\n        /* \"contracts/Examples/ExampleWrapAround.sol\":836:842  myUint */\n      0x00\n      dup1\n        /* \"contracts/Examples/ExampleWrapAround.sol\":836:844  myUint++ */\n      dup2\n      sload\n      dup1\n      swap3\n      swap2\n      swap1\n      tag_29\n      swap1\n      tag_30\n      jump\t// in\n    tag_29:\n      swap2\n      swap1\n      pop\n      sstore\n      pop\n        /* \"contracts/Examples/ExampleWrapAround.sol\":791:852  function incrementMyUint() public {... */\n      jump\t// out\n        /* \"contracts/Examples/ExampleWrapAround.sol\":860:922  function decrementMyUint() public {... */\n    tag_16:\n        /* \"contracts/Examples/ExampleWrapAround.sol\":905:912  myUint8 */\n      0x01\n      0x00\n        /* \"contracts/Examples/ExampleWrapAround.sol\":905:914  myUint8-- */\n      dup2\n      dup2\n      swap1\n      sload\n      swap1\n      0x0100\n      exp\n      swap1\n      div\n      0xff\n      and\n      dup1\n      swap3\n      swap2\n      swap1\n      tag_32\n      swap1\n      tag_33\n      jump\t// in\n    tag_32:\n      swap2\n      swap1\n      0x0100\n      exp\n      dup2\n      sload\n      dup2\n      0xff\n      mul\n      not\n      and\n      swap1\n      dup4\n      0xff\n      and\n      mul\n      or\n      swap1\n      sstore\n      pop\n      pop\n        /* \"contracts/Examples/ExampleWrapAround.sol\":860:922  function decrementMyUint() public {... */\n      jump\t// out\n        /* \"contracts/Examples/ExampleWrapAround.sol\":259:297  uint8 public myToThePowerOfInt8 = 2**4 */\n    tag_18:\n      0x01\n      dup1\n      sload\n      swap1\n      0x0100\n      exp\n      swap1\n      div\n      0xff\n      and\n      dup2\n      jump\t// out\n        /* \"contracts/Examples/ExampleWrapAround.sol\":140:166  uint8 public myUint8 = 255 */\n    tag_22:\n      0x01\n      0x00\n      swap1\n      sload\n      swap1\n      0x0100\n      exp\n      swap1\n      div\n      0xff\n      and\n      dup2\n      jump\t// out\n        /* \"contracts/Examples/ExampleWrapAround.sol\":306:381  function setMyUint(uint _myUint) public {... */\n    tag_27:\n        /* \"contracts/Examples/ExampleWrapAround.sol\":366:373  _myUint */\n      dup1\n        /* \"contracts/Examples/ExampleWrapAround.sol\":357:363  myUint */\n      0x00\n        /* \"contracts/Examples/ExampleWrapAround.sol\":357:373  myUint = _myUint */\n      dup2\n      swap1\n      sstore\n      pop\n        /* \"contracts/Examples/ExampleWrapAround.sol\":306:381  function setMyUint(uint _myUint) public {... */\n      pop\n      jump\t// out\n        /* \"#utility.yul\":7:84   */\n    tag_35:\n        /* \"#utility.yul\":44:51   */\n      0x00\n        /* \"#utility.yul\":73:78   */\n      dup2\n        /* \"#utility.yul\":62:78   */\n      swap1\n      pop\n        /* \"#utility.yul\":7:84   */\n      swap2\n      swap1\n      pop\n      jump\t// out\n        /* \"#utility.yul\":90:208   */\n    tag_36:\n        /* \"#utility.yul\":177:201   */\n      tag_48\n        /* \"#utility.yul\":195:200   */\n      dup2\n        /* \"#utility.yul\":177:201   */\n      tag_35\n      jump\t// in\n    tag_48:\n        /* \"#utility.yul\":172:175   */\n      dup3\n        /* \"#utility.yul\":165:202   */\n      mstore\n        /* \"#utility.yul\":90:208   */\n      pop\n      pop\n      jump\t// out\n        /* \"#utility.yul\":214:436   */\n    tag_12:\n        /* \"#utility.yul\":307:311   */\n      0x00\n        /* \"#utility.yul\":345:347   */\n      0x20\n        /* \"#utility.yul\":334:343   */\n      dup3\n        /* \"#utility.yul\":330:348   */\n      add\n        /* \"#utility.yul\":322:348   */\n      swap1\n      pop\n        /* \"#utility.yul\":358:429   */\n      tag_50\n        /* \"#utility.yul\":426:427   */\n      0x00\n        /* \"#utility.yul\":415:424   */\n      dup4\n        /* \"#utility.yul\":411:428   */\n      add\n        /* \"#utility.yul\":402:408   */\n      dup5\n        /* \"#utility.yul\":358:429   */\n      tag_36\n      jump\t// in\n    tag_50:\n        /* \"#utility.yul\":214:436   */\n      swap3\n      swap2\n      pop\n      pop\n      jump\t// out\n        /* \"#utility.yul\":442:528   */\n    tag_37:\n        /* \"#utility.yul\":477:484   */\n      0x00\n        /* \"#utility.yul\":517:521   */\n      0xff\n        /* \"#utility.yul\":510:515   */\n      dup3\n        /* \"#utility.yul\":506:522   */\n      and\n        /* \"#utility.yul\":495:522   */\n      swap1\n      pop\n        /* \"#utility.yul\":442:528   */\n      swap2\n      swap1\n      pop\n      jump\t// out\n        /* \"#utility.yul\":534:646   */\n    tag_38:\n        /* \"#utility.yul\":617:639   */\n      tag_53\n        /* \"#utility.yul\":633:638   */\n      dup2\n        /* \"#utility.yul\":617:639   */\n      tag_37\n      jump\t// in\n    tag_53:\n        /* \"#utility.yul\":612:615   */\n      dup3\n        /* \"#utility.yul\":605:640   */\n      mstore\n        /* \"#utility.yul\":534:646   */\n      pop\n      pop\n      jump\t// out\n        /* \"#utility.yul\":652:866   */\n    tag_20:\n        /* \"#utility.yul\":741:745   */\n      0x00\n        /* \"#utility.yul\":779:781   */\n      0x20\n        /* \"#utility.yul\":768:777   */\n      dup3\n        /* \"#utility.yul\":764:782   */\n      add\n        /* \"#utility.yul\":756:782   */\n      swap1\n      pop\n        /* \"#utility.yul\":792:859   */\n      tag_55\n        /* \"#utility.yul\":856:857   */\n      0x00\n        /* \"#utility.yul\":845:854   */\n      dup4\n        /* \"#utility.yul\":841:858   */\n      add\n        /* \"#utility.yul\":832:838   */\n      dup5\n        /* \"#utility.yul\":792:859   */\n      tag_38\n      jump\t// in\n    tag_55:\n        /* \"#utility.yul\":652:866   */\n      swap3\n      swap2\n      pop\n      pop\n      jump\t// out\n        /* \"#utility.yul\":953:1070   */\n    tag_40:\n        /* \"#utility.yul\":1062:1063   */\n      0x00\n        /* \"#utility.yul\":1059:1060   */\n      dup1\n        /* \"#utility.yul\":1052:1064   */\n      revert\n        /* \"#utility.yul\":1199:1321   */\n    tag_42:\n        /* \"#utility.yul\":1272:1296   */\n      tag_60\n        /* \"#utility.yul\":1290:1295   */\n      dup2\n        /* \"#utility.yul\":1272:1296   */\n      tag_35\n      jump\t// in\n    tag_60:\n        /* \"#utility.yul\":1265:1270   */\n      dup2\n        /* \"#utility.yul\":1262:1297   */\n      eq\n        /* \"#utility.yul\":1252:1315   */\n      tag_61\n      jumpi\n        /* \"#utility.yul\":1311:1312   */\n      0x00\n        /* \"#utility.yul\":1308:1309   */\n      dup1\n        /* \"#utility.yul\":1301:1313   */\n      revert\n        /* \"#utility.yul\":1252:1315   */\n    tag_61:\n        /* \"#utility.yul\":1199:1321   */\n      pop\n      jump\t// out\n        /* \"#utility.yul\":1327:1466   */\n    tag_43:\n        /* \"#utility.yul\":1373:1378   */\n      0x00\n        /* \"#utility.yul\":1411:1417   */\n      dup2\n        /* \"#utility.yul\":1398:1418   */\n      calldataload\n        /* \"#utility.yul\":1389:1418   */\n      swap1\n      pop\n        /* \"#utility.yul\":1427:1460   */\n      tag_63\n        /* \"#utility.yul\":1454:1459   */\n      dup2\n        /* \"#utility.yul\":1427:1460   */\n      tag_42\n      jump\t// in\n    tag_63:\n        /* \"#utility.yul\":1327:1466   */\n      swap3\n      swap2\n      pop\n      pop\n      jump\t// out\n        /* \"#utility.yul\":1472:1801   */\n    tag_26:\n        /* \"#utility.yul\":1531:1537   */\n      0x00\n        /* \"#utility.yul\":1580:1582   */\n      0x20\n        /* \"#utility.yul\":1568:1577   */\n      dup3\n        /* \"#utility.yul\":1559:1566   */\n      dup5\n        /* \"#utility.yul\":1555:1578   */\n      sub\n        /* \"#utility.yul\":1551:1583   */\n      slt\n        /* \"#utility.yul\":1548:1667   */\n      iszero\n      tag_65\n      jumpi\n        /* \"#utility.yul\":1586:1665   */\n      tag_66\n      tag_40\n      jump\t// in\n    tag_66:\n        /* \"#utility.yul\":1548:1667   */\n    tag_65:\n        /* \"#utility.yul\":1706:1707   */\n      0x00\n        /* \"#utility.yul\":1731:1784   */\n      tag_67\n        /* \"#utility.yul\":1776:1783   */\n      dup5\n        /* \"#utility.yul\":1767:1773   */\n      dup3\n        /* \"#utility.yul\":1756:1765   */\n      dup6\n        /* \"#utility.yul\":1752:1774   */\n      add\n        /* \"#utility.yul\":1731:1784   */\n      tag_43\n      jump\t// in\n    tag_67:\n        /* \"#utility.yul\":1721:1784   */\n      swap2\n      pop\n        /* \"#utility.yul\":1677:1794   */\n      pop\n        /* \"#utility.yul\":1472:1801   */\n      swap3\n      swap2\n      pop\n      pop\n      jump\t// out\n        /* \"#utility.yul\":1807:1987   */\n    tag_44:\n        /* \"#utility.yul\":1855:1932   */\n      0x4e487b7100000000000000000000000000000000000000000000000000000000\n        /* \"#utility.yul\":1852:1853   */\n      0x00\n        /* \"#utility.yul\":1845:1933   */\n      mstore\n        /* \"#utility.yul\":1952:1956   */\n      0x11\n        /* \"#utility.yul\":1949:1950   */\n      0x04\n        /* \"#utility.yul\":1942:1957   */\n      mstore\n        /* \"#utility.yul\":1976:1980   */\n      0x24\n        /* \"#utility.yul\":1973:1974   */\n      0x00\n        /* \"#utility.yul\":1966:1981   */\n      revert\n        /* \"#utility.yul\":1993:2226   */\n    tag_30:\n        /* \"#utility.yul\":2032:2035   */\n      0x00\n        /* \"#utility.yul\":2055:2079   */\n      tag_70\n        /* \"#utility.yul\":2073:2078   */\n      dup3\n        /* \"#utility.yul\":2055:2079   */\n      tag_35\n      jump\t// in\n    tag_70:\n        /* \"#utility.yul\":2046:2079   */\n      swap2\n      pop\n        /* \"#utility.yul\":2101:2167   */\n      0xffffffffffffffffffffffffffffffffffffffffffffffffffffffffffffffff\n        /* \"#utility.yul\":2094:2099   */\n      dup3\n        /* \"#utility.yul\":2091:2168   */\n      sub\n        /* \"#utility.yul\":2088:2191   */\n      tag_71\n      jumpi\n        /* \"#utility.yul\":2171:2189   */\n      tag_72\n      tag_44\n      jump\t// in\n    tag_72:\n        /* \"#utility.yul\":2088:2191   */\n    tag_71:\n        /* \"#utility.yul\":2218:2219   */\n      0x01\n        /* \"#utility.yul\":2211:2216   */\n      dup3\n        /* \"#utility.yul\":2207:2220   */\n      add\n        /* \"#utility.yul\":2200:2220   */\n      swap1\n      pop\n        /* \"#utility.yul\":1993:2226   */\n      swap2\n      swap1\n      pop\n      jump\t// out\n        /* \"#utility.yul\":2232:2399   */\n    tag_33:\n        /* \"#utility.yul\":2269:2272   */\n      0x00\n        /* \"#utility.yul\":2292:2314   */\n      tag_74\n        /* \"#utility.yul\":2308:2313   */\n      dup3\n        /* \"#utility.yul\":2292:2314   */\n      tag_37\n      jump\t// in\n    tag_74:\n        /* \"#utility.yul\":2283:2314   */\n      swap2\n      pop\n        /* \"#utility.yul\":2336:2340   */\n      0x00\n        /* \"#utility.yul\":2329:2334   */\n      dup3\n        /* \"#utility.yul\":2326:2341   */\n      sub\n        /* \"#utility.yul\":2323:2364   */\n      tag_75\n      jumpi\n        /* \"#utility.yul\":2344:2362   */\n      tag_76\n      tag_44\n      jump\t// in\n    tag_76:\n        /* \"#utility.yul\":2323:2364   */\n    tag_75:\n        /* \"#utility.yul\":2391:2392   */\n      0x01\n        /* \"#utility.yul\":2384:2389   */\n      dup3\n        /* \"#utility.yul\":2380:2393   */\n      sub\n        /* \"#utility.yul\":2373:2393   */\n      swap1\n      pop\n        /* \"#utility.yul\":2232:2399   */\n      swap2\n      swap1\n      pop\n      jump\t// out\n\n    auxdata: 0xa264697066735822122049c9271d84c633aa804942b364bc17c81898837a74cf4de0fcd5c1aecf8c7ca964736f6c63430008110033\n}\n",
				"bytecode": {
					"linkReferences": {},
					"object": "608060405260ff600160006101000a81548160ff021916908360ff16021790555060106001806101000a81548160ff021916908360ff16021790555034801561004757600080fd5b50610317806100576000396000f3fe608060405234801561001057600080fd5b50600436106100625760003560e01c806306540f7e1461006757806355b1ac8a146100855780637d1ff3c41461008f5780638d766c1014610099578063e2a4b2af146100b7578063e492fd84146100d5575b600080fd5b61006f6100f1565b60405161007c9190610191565b60405180910390f35b61008d6100f7565b005b610097610110565b005b6100a161014a565b6040516100ae91906101c8565b60405180910390f35b6100bf61015b565b6040516100cc91906101c8565b60405180910390f35b6100ef60048036038101906100ea9190610214565b61016e565b005b60005481565b60008081548092919061010990610270565b9190505550565b6001600081819054906101000a900460ff168092919061012f906102b8565b91906101000a81548160ff021916908360ff16021790555050565b60018054906101000a900460ff1681565b600160009054906101000a900460ff1681565b8060008190555050565b6000819050919050565b61018b81610178565b82525050565b60006020820190506101a66000830184610182565b92915050565b600060ff82169050919050565b6101c2816101ac565b82525050565b60006020820190506101dd60008301846101b9565b92915050565b600080fd5b6101f181610178565b81146101fc57600080fd5b50565b60008135905061020e816101e8565b92915050565b60006020828403121561022a576102296101e3565b5b6000610238848285016101ff565b91505092915050565b7f4e487b7100000000000000000000000000000000000000000000000000000000600052601160045260246000fd5b600061027b82610178565b91507fffffffffffffffffffffffffffffffffffffffffffffffffffffffffffffffff82036102ad576102ac610241565b5b600182019050919050565b60006102c3826101ac565b9150600082036102d6576102d5610241565b5b60018203905091905056fea264697066735822122049c9271d84c633aa804942b364bc17c81898837a74cf4de0fcd5c1aecf8c7ca964736f6c63430008110033",
					"opcodes": "PUSH1 0x80 PUSH1 0x40 MSTORE PUSH1 0xFF PUSH1 0x1 PUSH1 0x0 PUSH2 0x100 EXP DUP2 SLOAD DUP2 PUSH1 0xFF MUL NOT AND SWAP1 DUP4 PUSH1 0xFF AND MUL OR SWAP1 SSTORE POP PUSH1 0x10 PUSH1 0x1 DUP1 PUSH2 0x100 EXP DUP2 SLOAD DUP2 PUSH1 0xFF MUL NOT AND SWAP1 DUP4 PUSH1 0xFF AND MUL OR SWAP1 SSTORE POP CALLVALUE DUP1 ISZERO PUSH2 0x47 JUMPI PUSH1 0x0 DUP1 REVERT JUMPDEST POP PUSH2 0x317 DUP1 PUSH2 0x57 PUSH1 0x0 CODECOPY PUSH1 0x0 RETURN INVALID PUSH1 0x80 PUSH1 0x40 MSTORE CALLVALUE DUP1 ISZERO PUSH2 0x10 JUMPI PUSH1 0x0 DUP1 REVERT JUMPDEST POP PUSH1 0x4 CALLDATASIZE LT PUSH2 0x62 JUMPI PUSH1 0x0 CALLDATALOAD PUSH1 0xE0 SHR DUP1 PUSH4 0x6540F7E EQ PUSH2 0x67 JUMPI DUP1 PUSH4 0x55B1AC8A EQ PUSH2 0x85 JUMPI DUP1 PUSH4 0x7D1FF3C4 EQ PUSH2 0x8F JUMPI DUP1 PUSH4 0x8D766C10 EQ PUSH2 0x99 JUMPI DUP1 PUSH4 0xE2A4B2AF EQ PUSH2 0xB7 JUMPI DUP1 PUSH4 0xE492FD84 EQ PUSH2 0xD5 JUMPI JUMPDEST PUSH1 0x0 DUP1 REVERT JUMPDEST PUSH2 0x6F PUSH2 0xF1 JUMP JUMPDEST PUSH1 0x40 MLOAD PUSH2 0x7C SWAP2 SWAP1 PUSH2 0x191 JUMP JUMPDEST PUSH1 0x40 MLOAD DUP1 SWAP2 SUB SWAP1 RETURN JUMPDEST PUSH2 0x8D PUSH2 0xF7 JUMP JUMPDEST STOP JUMPDEST PUSH2 0x97 PUSH2 0x110 JUMP JUMPDEST STOP JUMPDEST PUSH2 0xA1 PUSH2 0x14A JUMP JUMPDEST PUSH1 0x40 MLOAD PUSH2 0xAE SWAP2 SWAP1 PUSH2 0x1C8 JUMP JUMPDEST PUSH1 0x40 MLOAD DUP1 SWAP2 SUB SWAP1 RETURN JUMPDEST PUSH2 0xBF PUSH2 0x15B JUMP JUMPDEST PUSH1 0x40 MLOAD PUSH2 0xCC SWAP2 SWAP1 PUSH2 0x1C8 JUMP JUMPDEST PUSH1 0x40 MLOAD DUP1 SWAP2 SUB SWAP1 RETURN JUMPDEST PUSH2 0xEF PUSH1 0x4 DUP1 CALLDATASIZE SUB DUP2 ADD SWAP1 PUSH2 0xEA SWAP2 SWAP1 PUSH2 0x214 JUMP JUMPDEST PUSH2 0x16E JUMP JUMPDEST STOP JUMPDEST PUSH1 0x0 SLOAD DUP2 JUMP JUMPDEST PUSH1 0x0 DUP1 DUP2 SLOAD DUP1 SWAP3 SWAP2 SWAP1 PUSH2 0x109 SWAP1 PUSH2 0x270 JUMP JUMPDEST SWAP2 SWAP1 POP SSTORE POP JUMP JUMPDEST PUSH1 0x1 PUSH1 0x0 DUP2 DUP2 SWAP1 SLOAD SWAP1 PUSH2 0x100 EXP SWAP1 DIV PUSH1 0xFF AND DUP1 SWAP3 SWAP2 SWAP1 PUSH2 0x12F SWAP1 PUSH2 0x2B8 JUMP JUMPDEST SWAP2 SWAP1 PUSH2 0x100 EXP DUP2 SLOAD DUP2 PUSH1 0xFF MUL NOT AND SWAP1 DUP4 PUSH1 0xFF AND MUL OR SWAP1 SSTORE POP POP JUMP JUMPDEST PUSH1 0x1 DUP1 SLOAD SWAP1 PUSH2 0x100 EXP SWAP1 DIV PUSH1 0xFF AND DUP2 JUMP JUMPDEST PUSH1 0x1 PUSH1 0x0 SWAP1 SLOAD SWAP1 PUSH2 0x100 EXP SWAP1 DIV PUSH1 0xFF AND DUP2 JUMP JUMPDEST DUP1 PUSH1 0x0 DUP2 SWAP1 SSTORE POP POP JUMP JUMPDEST PUSH1 0x0 DUP2 SWAP1 POP SWAP2 SWAP1 POP JUMP JUMPDEST PUSH2 0x18B DUP2 PUSH2 0x178 JUMP JUMPDEST DUP3 MSTORE POP POP JUMP JUMPDEST PUSH1 0x0 PUSH1 0x20 DUP3 ADD SWAP1 POP PUSH2 0x1A6 PUSH1 0x0 DUP4 ADD DUP5 PUSH2 0x182 JUMP JUMPDEST SWAP3 SWAP2 POP POP JUMP JUMPDEST PUSH1 0x0 PUSH1 0xFF DUP3 AND SWAP1 POP SWAP2 SWAP1 POP JUMP JUMPDEST PUSH2 0x1C2 DUP2 PUSH2 0x1AC JUMP JUMPDEST DUP3 MSTORE POP POP JUMP JUMPDEST PUSH1 0x0 PUSH1 0x20 DUP3 ADD SWAP1 POP PUSH2 0x1DD PUSH1 0x0 DUP4 ADD DUP5 PUSH2 0x1B9 JUMP JUMPDEST SWAP3 SWAP2 POP POP JUMP JUMPDEST PUSH1 0x0 DUP1 REVERT JUMPDEST PUSH2 0x1F1 DUP2 PUSH2 0x178 JUMP JUMPDEST DUP2 EQ PUSH2 0x1FC JUMPI PUSH1 0x0 DUP1 REVERT JUMPDEST POP JUMP JUMPDEST PUSH1 0x0 DUP2 CALLDATALOAD SWAP1 POP PUSH2 0x20E DUP2 PUSH2 0x1E8 JUMP JUMPDEST SWAP3 SWAP2 POP POP JUMP JUMPDEST PUSH1 0x0 PUSH1 0x20 DUP3 DUP5 SUB SLT ISZERO PUSH2 0x22A JUMPI PUSH2 0x229 PUSH2 0x1E3 JUMP JUMPDEST JUMPDEST PUSH1 0x0 PUSH2 0x238 DUP5 DUP3 DUP6 ADD PUSH2 0x1FF JUMP JUMPDEST SWAP2 POP POP SWAP3 SWAP2 POP POP JUMP JUMPDEST PUSH32 0x4E487B7100000000000000000000000000000000000000000000000000000000 PUSH1 0x0 MSTORE PUSH1 0x11 PUSH1 0x4 MSTORE PUSH1 0x24 PUSH1 0x0 REVERT JUMPDEST PUSH1 0x0 PUSH2 0x27B DUP3 PUSH2 0x178 JUMP JUMPDEST SWAP2 POP PUSH32 0xFFFFFFFFFFFFFFFFFFFFFFFFFFFFFFFFFFFFFFFFFFFFFFFFFFFFFFFFFFFFFFFF DUP3 SUB PUSH2 0x2AD JUMPI PUSH2 0x2AC PUSH2 0x241 JUMP JUMPDEST JUMPDEST PUSH1 0x1 DUP3 ADD SWAP1 POP SWAP2 SWAP1 POP JUMP JUMPDEST PUSH1 0x0 PUSH2 0x2C3 DUP3 PUSH2 0x1AC JUMP JUMPDEST SWAP2 POP PUSH1 0x0 DUP3 SUB PUSH2 0x2D6 JUMPI PUSH2 0x2D5 PUSH2 0x241 JUMP JUMPDEST JUMPDEST PUSH1 0x1 DUP3 SUB SWAP1 POP SWAP2 SWAP1 POP JUMP INVALID LOG2 PUSH5 0x6970667358 0x22 SLT KECCAK256 0x49 0xC9 0x27 SAR DUP5 0xC6 CALLER 0xAA DUP1 0x49 TIMESTAMP 0xB3 PUSH5 0xBC17C81898 DUP4 PUSH27 0x74CF4DE0FCD5C1AECF8C7CA964736F6C6343000811003300000000 "
				},
				"gasEstimates": {
					"creation": {
						"codeDepositCost": "158200",
						"executionCost": "48786",
						"totalCost": "206986"
					},
					"external": {
						"decrementMyUint()": "26721",
						"incrementMyUint()": "24501",
						"myToThePowerOfInt8()": "2562",
						"myUint()": "2407",
						"myUint8()": "2537",
						"setMyUint(uint256)": "22608"
					}
				},
				"methodIdentifiers": {
					"decrementMyUint()": "7d1ff3c4",
					"incrementMyUint()": "55b1ac8a",
					"myToThePowerOfInt8()": "8d766c10",
					"myUint()": "06540f7e",
					"myUint8()": "e2a4b2af",
					"setMyUint(uint256)": "e492fd84"
				}
			},
			"storageLayout": {
				"storage": [
					{
						"astId": 3,
						"contract": "contracts/Examples/ExampleWrapAround.sol:ExampleWrapAround",
						"label": "myUint",
						"offset": 0,
						"slot": "0",
						"type": "t_uint256"
					},
					{
						"astId": 6,
						"contract": "contracts/Examples/ExampleWrapAround.sol:ExampleWrapAround",
						"label": "myUint8",
						"offset": 0,
						"slot": "1",
						"type": "t_uint8"
					},
					{
						"astId": 11,
						"contract": "contracts/Examples/ExampleWrapAround.sol:ExampleWrapAround",
						"label": "myToThePowerOfInt8",
						"offset": 1,
						"slot": "1",
						"type": "t_uint8"
					}
				],
				"types": {
					"t_uint256": {
						"encoding": "inplace",
						"label": "uint256",
						"numberOfBytes": "32"
					},
					"t_uint8": {
						"encoding": "inplace",
						"label": "uint8",
						"numberOfBytes": "1"
					}
				}
			},
			"userdoc": {
				"kind": "user",
				"methods": {},
				"version": 1
			}
		}
	}
}