{
	"contracts/Examples/ExampleString.sol": {
		"ExampleString": {
			"abi": [
				{
					"inputs": [],
					"name": "myString",
					"outputs": [
						{
							"internalType": "string",
							"name": "",
							"type": "string"
						}
					],
					"stateMutability": "view",
					"type": "function"
				},
				{
					"inputs": [
						{
							"internalType": "string",
							"name": "_myString",
							"type": "string"
						}
					],
					"name": "setMyString",
					"outputs": [],
					"stateMutability": "nonpayable",
					"type": "function"
				},
				{
					"inputs": [
						{
							"internalType": "string",
							"name": "_myString",
							"type": "string"
						}
					],
					"name": "stringCompare",
					"outputs": [
						{
							"internalType": "bool",
							"name": "",
							"type": "bool"
						}
					],
					"stateMutability": "view",
					"type": "function"
				}
			],
			"devdoc": {
				"kind": "dev",
				"methods": {},
				"version": 1
			},
			"evm": {
				"assembly": "    /* \"contracts/Examples/ExampleString.sol\":62:421  contract ExampleString {... */\n  mstore(0x40, 0x80)\n    /* \"contracts/Examples/ExampleString.sol\":92:130  string public myString = \"Hello World\" */\n  mload(0x40)\n  dup1\n  0x40\n  add\n  0x40\n  mstore\n  dup1\n  0x0b\n  dup2\n  mstore\n  0x20\n  add\n  0x48656c6c6f20576f726c64000000000000000000000000000000000000000000\n  dup2\n  mstore\n  pop\n  0x00\n  swap1\n  dup2\n  tag_1\n  swap2\n  swap1\n  tag_2\n  jump\t// in\ntag_1:\n  pop\n    /* \"contracts/Examples/ExampleString.sol\":62:421  contract ExampleString {... */\n  callvalue\n  dup1\n  iszero\n  tag_3\n  jumpi\n  0x00\n  dup1\n  revert\ntag_3:\n  pop\n  jump(tag_4)\n    /* \"#utility.yul\":7:106   */\ntag_5:\n    /* \"#utility.yul\":59:65   */\n  0x00\n    /* \"#utility.yul\":93:98   */\n  dup2\n    /* \"#utility.yul\":87:99   */\n  mload\n    /* \"#utility.yul\":77:99   */\n  swap1\n  pop\n    /* \"#utility.yul\":7:106   */\n  swap2\n  swap1\n  pop\n  jump\t// out\n    /* \"#utility.yul\":112:292   */\ntag_6:\n    /* \"#utility.yul\":160:237   */\n  0x4e487b7100000000000000000000000000000000000000000000000000000000\n    /* \"#utility.yul\":157:158   */\n  0x00\n    /* \"#utility.yul\":150:238   */\n  mstore\n    /* \"#utility.yul\":257:261   */\n  0x41\n    /* \"#utility.yul\":254:255   */\n  0x04\n    /* \"#utility.yul\":247:262   */\n  mstore\n    /* \"#utility.yul\":281:285   */\n  0x24\n    /* \"#utility.yul\":278:279   */\n  0x00\n    /* \"#utility.yul\":271:286   */\n  revert\n    /* \"#utility.yul\":298:478   */\ntag_7:\n    /* \"#utility.yul\":346:423   */\n  0x4e487b7100000000000000000000000000000000000000000000000000000000\n    /* \"#utility.yul\":343:344   */\n  0x00\n    /* \"#utility.yul\":336:424   */\n  mstore\n    /* \"#utility.yul\":443:447   */\n  0x22\n    /* \"#utility.yul\":440:441   */\n  0x04\n    /* \"#utility.yul\":433:448   */\n  mstore\n    /* \"#utility.yul\":467:471   */\n  0x24\n    /* \"#utility.yul\":464:465   */\n  0x00\n    /* \"#utility.yul\":457:472   */\n  revert\n    /* \"#utility.yul\":484:804   */\ntag_8:\n    /* \"#utility.yul\":528:534   */\n  0x00\n    /* \"#utility.yul\":565:566   */\n  0x02\n    /* \"#utility.yul\":559:563   */\n  dup3\n    /* \"#utility.yul\":555:567   */\n  div\n    /* \"#utility.yul\":545:567   */\n  swap1\n  pop\n    /* \"#utility.yul\":612:613   */\n  0x01\n    /* \"#utility.yul\":606:610   */\n  dup3\n    /* \"#utility.yul\":602:614   */\n  and\n    /* \"#utility.yul\":633:651   */\n  dup1\n    /* \"#utility.yul\":623:704   */\n  tag_30\n  jumpi\n    /* \"#utility.yul\":689:693   */\n  0x7f\n    /* \"#utility.yul\":681:687   */\n  dup3\n    /* \"#utility.yul\":677:694   */\n  and\n    /* \"#utility.yul\":667:694   */\n  swap2\n  pop\n    /* \"#utility.yul\":623:704   */\ntag_30:\n    /* \"#utility.yul\":751:753   */\n  0x20\n    /* \"#utility.yul\":743:749   */\n  dup3\n    /* \"#utility.yul\":740:754   */\n  lt\n    /* \"#utility.yul\":720:738   */\n  dup2\n    /* \"#utility.yul\":717:755   */\n  sub\n    /* \"#utility.yul\":714:798   */\n  tag_31\n  jumpi\n    /* \"#utility.yul\":770:788   */\n  tag_32\n  tag_7\n  jump\t// in\ntag_32:\n    /* \"#utility.yul\":714:798   */\ntag_31:\n    /* \"#utility.yul\":535:804   */\n  pop\n    /* \"#utility.yul\":484:804   */\n  swap2\n  swap1\n  pop\n  jump\t// out\n    /* \"#utility.yul\":810:951   */\ntag_9:\n    /* \"#utility.yul\":859:863   */\n  0x00\n    /* \"#utility.yul\":882:885   */\n  dup2\n    /* \"#utility.yul\":874:885   */\n  swap1\n  pop\n    /* \"#utility.yul\":905:908   */\n  dup2\n    /* \"#utility.yul\":902:903   */\n  0x00\n    /* \"#utility.yul\":895:909   */\n  mstore\n    /* \"#utility.yul\":939:943   */\n  0x20\n    /* \"#utility.yul\":936:937   */\n  0x00\n    /* \"#utility.yul\":926:944   */\n  keccak256\n    /* \"#utility.yul\":918:944   */\n  swap1\n  pop\n    /* \"#utility.yul\":810:951   */\n  swap2\n  swap1\n  pop\n  jump\t// out\n    /* \"#utility.yul\":957:1050   */\ntag_10:\n    /* \"#utility.yul\":994:1000   */\n  0x00\n    /* \"#utility.yul\":1041:1043   */\n  0x20\n    /* \"#utility.yul\":1036:1038   */\n  0x1f\n    /* \"#utility.yul\":1029:1034   */\n  dup4\n    /* \"#utility.yul\":1025:1039   */\n  add\n    /* \"#utility.yul\":1021:1044   */\n  div\n    /* \"#utility.yul\":1011:1044   */\n  swap1\n  pop\n    /* \"#utility.yul\":957:1050   */\n  swap2\n  swap1\n  pop\n  jump\t// out\n    /* \"#utility.yul\":1056:1163   */\ntag_11:\n    /* \"#utility.yul\":1100:1108   */\n  0x00\n    /* \"#utility.yul\":1150:1155   */\n  dup3\n    /* \"#utility.yul\":1144:1148   */\n  dup3\n    /* \"#utility.yul\":1140:1156   */\n  shl\n    /* \"#utility.yul\":1119:1156   */\n  swap1\n  pop\n    /* \"#utility.yul\":1056:1163   */\n  swap3\n  swap2\n  pop\n  pop\n  jump\t// out\n    /* \"#utility.yul\":1169:1562   */\ntag_12:\n    /* \"#utility.yul\":1238:1244   */\n  0x00\n    /* \"#utility.yul\":1288:1289   */\n  0x08\n    /* \"#utility.yul\":1276:1286   */\n  dup4\n    /* \"#utility.yul\":1272:1290   */\n  mul\n    /* \"#utility.yul\":1311:1408   */\n  tag_37\n    /* \"#utility.yul\":1341:1407   */\n  0xffffffffffffffffffffffffffffffffffffffffffffffffffffffffffffffff\n    /* \"#utility.yul\":1330:1339   */\n  dup3\n    /* \"#utility.yul\":1311:1408   */\n  tag_11\n  jump\t// in\ntag_37:\n    /* \"#utility.yul\":1429:1468   */\n  tag_38\n    /* \"#utility.yul\":1459:1467   */\n  dup7\n    /* \"#utility.yul\":1448:1457   */\n  dup4\n    /* \"#utility.yul\":1429:1468   */\n  tag_11\n  jump\t// in\ntag_38:\n    /* \"#utility.yul\":1417:1468   */\n  swap6\n  pop\n    /* \"#utility.yul\":1501:1505   */\n  dup1\n    /* \"#utility.yul\":1497:1506   */\n  not\n    /* \"#utility.yul\":1490:1495   */\n  dup5\n    /* \"#utility.yul\":1486:1507   */\n  and\n    /* \"#utility.yul\":1477:1507   */\n  swap4\n  pop\n    /* \"#utility.yul\":1550:1554   */\n  dup1\n    /* \"#utility.yul\":1540:1548   */\n  dup7\n    /* \"#utility.yul\":1536:1555   */\n  and\n    /* \"#utility.yul\":1529:1534   */\n  dup5\n    /* \"#utility.yul\":1526:1556   */\n  or\n    /* \"#utility.yul\":1516:1556   */\n  swap3\n  pop\n    /* \"#utility.yul\":1245:1562   */\n  pop\n  pop\n    /* \"#utility.yul\":1169:1562   */\n  swap4\n  swap3\n  pop\n  pop\n  pop\n  jump\t// out\n    /* \"#utility.yul\":1568:1645   */\ntag_13:\n    /* \"#utility.yul\":1605:1612   */\n  0x00\n    /* \"#utility.yul\":1634:1639   */\n  dup2\n    /* \"#utility.yul\":1623:1639   */\n  swap1\n  pop\n    /* \"#utility.yul\":1568:1645   */\n  swap2\n  swap1\n  pop\n  jump\t// out\n    /* \"#utility.yul\":1651:1711   */\ntag_14:\n    /* \"#utility.yul\":1679:1682   */\n  0x00\n    /* \"#utility.yul\":1700:1705   */\n  dup2\n    /* \"#utility.yul\":1693:1705   */\n  swap1\n  pop\n    /* \"#utility.yul\":1651:1711   */\n  swap2\n  swap1\n  pop\n  jump\t// out\n    /* \"#utility.yul\":1717:1859   */\ntag_15:\n    /* \"#utility.yul\":1767:1776   */\n  0x00\n    /* \"#utility.yul\":1800:1853   */\n  tag_42\n    /* \"#utility.yul\":1818:1852   */\n  tag_43\n    /* \"#utility.yul\":1827:1851   */\n  tag_44\n    /* \"#utility.yul\":1845:1850   */\n  dup5\n    /* \"#utility.yul\":1827:1851   */\n  tag_13\n  jump\t// in\ntag_44:\n    /* \"#utility.yul\":1818:1852   */\n  tag_14\n  jump\t// in\ntag_43:\n    /* \"#utility.yul\":1800:1853   */\n  tag_13\n  jump\t// in\ntag_42:\n    /* \"#utility.yul\":1787:1853   */\n  swap1\n  pop\n    /* \"#utility.yul\":1717:1859   */\n  swap2\n  swap1\n  pop\n  jump\t// out\n    /* \"#utility.yul\":1865:1940   */\ntag_16:\n    /* \"#utility.yul\":1908:1911   */\n  0x00\n    /* \"#utility.yul\":1929:1934   */\n  dup2\n    /* \"#utility.yul\":1922:1934   */\n  swap1\n  pop\n    /* \"#utility.yul\":1865:1940   */\n  swap2\n  swap1\n  pop\n  jump\t// out\n    /* \"#utility.yul\":1946:2215   */\ntag_17:\n    /* \"#utility.yul\":2056:2095   */\n  tag_47\n    /* \"#utility.yul\":2087:2094   */\n  dup4\n    /* \"#utility.yul\":2056:2095   */\n  tag_15\n  jump\t// in\ntag_47:\n    /* \"#utility.yul\":2117:2208   */\n  tag_48\n    /* \"#utility.yul\":2166:2207   */\n  tag_49\n    /* \"#utility.yul\":2190:2206   */\n  dup3\n    /* \"#utility.yul\":2166:2207   */\n  tag_16\n  jump\t// in\ntag_49:\n    /* \"#utility.yul\":2158:2164   */\n  dup5\n    /* \"#utility.yul\":2151:2155   */\n  dup5\n    /* \"#utility.yul\":2145:2156   */\n  sload\n    /* \"#utility.yul\":2117:2208   */\n  tag_12\n  jump\t// in\ntag_48:\n    /* \"#utility.yul\":2111:2115   */\n  dup3\n    /* \"#utility.yul\":2104:2209   */\n  sstore\n    /* \"#utility.yul\":2022:2215   */\n  pop\n    /* \"#utility.yul\":1946:2215   */\n  pop\n  pop\n  pop\n  jump\t// out\n    /* \"#utility.yul\":2221:2294   */\ntag_18:\n    /* \"#utility.yul\":2266:2269   */\n  0x00\n    /* \"#utility.yul\":2221:2294   */\n  swap1\n  jump\t// out\n    /* \"#utility.yul\":2300:2489   */\ntag_19:\n    /* \"#utility.yul\":2377:2409   */\n  tag_52\n  tag_18\n  jump\t// in\ntag_52:\n    /* \"#utility.yul\":2418:2483   */\n  tag_53\n    /* \"#utility.yul\":2476:2482   */\n  dup2\n    /* \"#utility.yul\":2468:2474   */\n  dup5\n    /* \"#utility.yul\":2462:2466   */\n  dup5\n    /* \"#utility.yul\":2418:2483   */\n  tag_17\n  jump\t// in\ntag_53:\n    /* \"#utility.yul\":2353:2489   */\n  pop\n    /* \"#utility.yul\":2300:2489   */\n  pop\n  pop\n  jump\t// out\n    /* \"#utility.yul\":2495:2681   */\ntag_20:\n    /* \"#utility.yul\":2555:2675   */\ntag_55:\n    /* \"#utility.yul\":2572:2575   */\n  dup2\n    /* \"#utility.yul\":2565:2570   */\n  dup2\n    /* \"#utility.yul\":2562:2576   */\n  lt\n    /* \"#utility.yul\":2555:2675   */\n  iszero\n  tag_57\n  jumpi\n    /* \"#utility.yul\":2626:2665   */\n  tag_58\n    /* \"#utility.yul\":2663:2664   */\n  0x00\n    /* \"#utility.yul\":2656:2661   */\n  dup3\n    /* \"#utility.yul\":2626:2665   */\n  tag_19\n  jump\t// in\ntag_58:\n    /* \"#utility.yul\":2599:2600   */\n  0x01\n    /* \"#utility.yul\":2592:2597   */\n  dup2\n    /* \"#utility.yul\":2588:2601   */\n  add\n    /* \"#utility.yul\":2579:2601   */\n  swap1\n  pop\n    /* \"#utility.yul\":2555:2675   */\n  jump(tag_55)\ntag_57:\n    /* \"#utility.yul\":2495:2681   */\n  pop\n  pop\n  jump\t// out\n    /* \"#utility.yul\":2687:3230   */\ntag_21:\n    /* \"#utility.yul\":2788:2790   */\n  0x1f\n    /* \"#utility.yul\":2783:2786   */\n  dup3\n    /* \"#utility.yul\":2780:2791   */\n  gt\n    /* \"#utility.yul\":2777:3223   */\n  iszero\n  tag_60\n  jumpi\n    /* \"#utility.yul\":2822:2860   */\n  tag_61\n    /* \"#utility.yul\":2854:2859   */\n  dup2\n    /* \"#utility.yul\":2822:2860   */\n  tag_9\n  jump\t// in\ntag_61:\n    /* \"#utility.yul\":2906:2935   */\n  tag_62\n    /* \"#utility.yul\":2924:2934   */\n  dup5\n    /* \"#utility.yul\":2906:2935   */\n  tag_10\n  jump\t// in\ntag_62:\n    /* \"#utility.yul\":2896:2904   */\n  dup2\n    /* \"#utility.yul\":2892:2936   */\n  add\n    /* \"#utility.yul\":3089:3091   */\n  0x20\n    /* \"#utility.yul\":3077:3087   */\n  dup6\n    /* \"#utility.yul\":3074:3092   */\n  lt\n    /* \"#utility.yul\":3071:3120   */\n  iszero\n  tag_63\n  jumpi\n    /* \"#utility.yul\":3110:3118   */\n  dup2\n    /* \"#utility.yul\":3095:3118   */\n  swap1\n  pop\n    /* \"#utility.yul\":3071:3120   */\ntag_63:\n    /* \"#utility.yul\":3133:3213   */\n  tag_64\n    /* \"#utility.yul\":3189:3211   */\n  tag_65\n    /* \"#utility.yul\":3207:3210   */\n  dup6\n    /* \"#utility.yul\":3189:3211   */\n  tag_10\n  jump\t// in\ntag_65:\n    /* \"#utility.yul\":3179:3187   */\n  dup4\n    /* \"#utility.yul\":3175:3212   */\n  add\n    /* \"#utility.yul\":3162:3173   */\n  dup3\n    /* \"#utility.yul\":3133:3213   */\n  tag_20\n  jump\t// in\ntag_64:\n    /* \"#utility.yul\":2792:3223   */\n  pop\n  pop\n    /* \"#utility.yul\":2777:3223   */\ntag_60:\n    /* \"#utility.yul\":2687:3230   */\n  pop\n  pop\n  pop\n  jump\t// out\n    /* \"#utility.yul\":3236:3353   */\ntag_22:\n    /* \"#utility.yul\":3290:3298   */\n  0x00\n    /* \"#utility.yul\":3340:3345   */\n  dup3\n    /* \"#utility.yul\":3334:3338   */\n  dup3\n    /* \"#utility.yul\":3330:3346   */\n  shr\n    /* \"#utility.yul\":3309:3346   */\n  swap1\n  pop\n    /* \"#utility.yul\":3236:3353   */\n  swap3\n  swap2\n  pop\n  pop\n  jump\t// out\n    /* \"#utility.yul\":3359:3528   */\ntag_23:\n    /* \"#utility.yul\":3403:3409   */\n  0x00\n    /* \"#utility.yul\":3436:3487   */\n  tag_68\n    /* \"#utility.yul\":3484:3485   */\n  0x00\n    /* \"#utility.yul\":3480:3486   */\n  not\n    /* \"#utility.yul\":3472:3477   */\n  dup5\n    /* \"#utility.yul\":3469:3470   */\n  0x08\n    /* \"#utility.yul\":3465:3478   */\n  mul\n    /* \"#utility.yul\":3436:3487   */\n  tag_22\n  jump\t// in\ntag_68:\n    /* \"#utility.yul\":3432:3488   */\n  not\n    /* \"#utility.yul\":3517:3521   */\n  dup1\n    /* \"#utility.yul\":3511:3515   */\n  dup4\n    /* \"#utility.yul\":3507:3522   */\n  and\n    /* \"#utility.yul\":3497:3522   */\n  swap2\n  pop\n    /* \"#utility.yul\":3410:3528   */\n  pop\n    /* \"#utility.yul\":3359:3528   */\n  swap3\n  swap2\n  pop\n  pop\n  jump\t// out\n    /* \"#utility.yul\":3533:3828   */\ntag_24:\n    /* \"#utility.yul\":3609:3613   */\n  0x00\n    /* \"#utility.yul\":3755:3784   */\n  tag_70\n    /* \"#utility.yul\":3780:3783   */\n  dup4\n    /* \"#utility.yul\":3774:3778   */\n  dup4\n    /* \"#utility.yul\":3755:3784   */\n  tag_23\n  jump\t// in\ntag_70:\n    /* \"#utility.yul\":3747:3784   */\n  swap2\n  pop\n    /* \"#utility.yul\":3817:3820   */\n  dup3\n    /* \"#utility.yul\":3814:3815   */\n  0x02\n    /* \"#utility.yul\":3810:3821   */\n  mul\n    /* \"#utility.yul\":3804:3808   */\n  dup3\n    /* \"#utility.yul\":3801:3822   */\n  or\n    /* \"#utility.yul\":3793:3822   */\n  swap1\n  pop\n    /* \"#utility.yul\":3533:3828   */\n  swap3\n  swap2\n  pop\n  pop\n  jump\t// out\n    /* \"#utility.yul\":3833:5228   */\ntag_2:\n    /* \"#utility.yul\":3950:3987   */\n  tag_72\n    /* \"#utility.yul\":3983:3986   */\n  dup3\n    /* \"#utility.yul\":3950:3987   */\n  tag_5\n  jump\t// in\ntag_72:\n    /* \"#utility.yul\":4052:4070   */\n  0xffffffffffffffff\n    /* \"#utility.yul\":4044:4050   */\n  dup2\n    /* \"#utility.yul\":4041:4071   */\n  gt\n    /* \"#utility.yul\":4038:4094   */\n  iszero\n  tag_73\n  jumpi\n    /* \"#utility.yul\":4074:4092   */\n  tag_74\n  tag_6\n  jump\t// in\ntag_74:\n    /* \"#utility.yul\":4038:4094   */\ntag_73:\n    /* \"#utility.yul\":4118:4156   */\n  tag_75\n    /* \"#utility.yul\":4150:4154   */\n  dup3\n    /* \"#utility.yul\":4144:4155   */\n  sload\n    /* \"#utility.yul\":4118:4156   */\n  tag_8\n  jump\t// in\ntag_75:\n    /* \"#utility.yul\":4203:4270   */\n  tag_76\n    /* \"#utility.yul\":4263:4269   */\n  dup3\n    /* \"#utility.yul\":4255:4261   */\n  dup3\n    /* \"#utility.yul\":4249:4253   */\n  dup6\n    /* \"#utility.yul\":4203:4270   */\n  tag_21\n  jump\t// in\ntag_76:\n    /* \"#utility.yul\":4297:4298   */\n  0x00\n    /* \"#utility.yul\":4321:4325   */\n  0x20\n    /* \"#utility.yul\":4308:4325   */\n  swap1\n  pop\n    /* \"#utility.yul\":4353:4355   */\n  0x1f\n    /* \"#utility.yul\":4345:4351   */\n  dup4\n    /* \"#utility.yul\":4342:4356   */\n  gt\n    /* \"#utility.yul\":4370:4371   */\n  0x01\n    /* \"#utility.yul\":4365:4983   */\n  dup2\n  eq\n  tag_78\n  jumpi\n    /* \"#utility.yul\":5027:5028   */\n  0x00\n    /* \"#utility.yul\":5044:5050   */\n  dup5\n    /* \"#utility.yul\":5041:5118   */\n  iszero\n  tag_79\n  jumpi\n    /* \"#utility.yul\":5093:5102   */\n  dup3\n    /* \"#utility.yul\":5088:5091   */\n  dup8\n    /* \"#utility.yul\":5084:5103   */\n  add\n    /* \"#utility.yul\":5078:5104   */\n  mload\n    /* \"#utility.yul\":5069:5104   */\n  swap1\n  pop\n    /* \"#utility.yul\":5041:5118   */\ntag_79:\n    /* \"#utility.yul\":5144:5211   */\n  tag_80\n    /* \"#utility.yul\":5204:5210   */\n  dup6\n    /* \"#utility.yul\":5197:5202   */\n  dup3\n    /* \"#utility.yul\":5144:5211   */\n  tag_24\n  jump\t// in\ntag_80:\n    /* \"#utility.yul\":5138:5142   */\n  dup7\n    /* \"#utility.yul\":5131:5212   */\n  sstore\n    /* \"#utility.yul\":5000:5222   */\n  pop\n    /* \"#utility.yul\":4335:5222   */\n  jump(tag_77)\n    /* \"#utility.yul\":4365:4983   */\ntag_78:\n    /* \"#utility.yul\":4417:4421   */\n  0x1f\n    /* \"#utility.yul\":4413:4422   */\n  not\n    /* \"#utility.yul\":4405:4411   */\n  dup5\n    /* \"#utility.yul\":4401:4423   */\n  and\n    /* \"#utility.yul\":4451:4488   */\n  tag_81\n    /* \"#utility.yul\":4483:4487   */\n  dup7\n    /* \"#utility.yul\":4451:4488   */\n  tag_9\n  jump\t// in\ntag_81:\n    /* \"#utility.yul\":4510:4511   */\n  0x00\n    /* \"#utility.yul\":4524:4732   */\ntag_82:\n    /* \"#utility.yul\":4538:4545   */\n  dup3\n    /* \"#utility.yul\":4535:4536   */\n  dup2\n    /* \"#utility.yul\":4532:4546   */\n  lt\n    /* \"#utility.yul\":4524:4732   */\n  iszero\n  tag_84\n  jumpi\n    /* \"#utility.yul\":4617:4626   */\n  dup5\n    /* \"#utility.yul\":4612:4615   */\n  dup10\n    /* \"#utility.yul\":4608:4627   */\n  add\n    /* \"#utility.yul\":4602:4628   */\n  mload\n    /* \"#utility.yul\":4594:4600   */\n  dup3\n    /* \"#utility.yul\":4587:4629   */\n  sstore\n    /* \"#utility.yul\":4668:4669   */\n  0x01\n    /* \"#utility.yul\":4660:4666   */\n  dup3\n    /* \"#utility.yul\":4656:4670   */\n  add\n    /* \"#utility.yul\":4646:4670   */\n  swap2\n  pop\n    /* \"#utility.yul\":4715:4717   */\n  0x20\n    /* \"#utility.yul\":4704:4713   */\n  dup6\n    /* \"#utility.yul\":4700:4718   */\n  add\n    /* \"#utility.yul\":4687:4718   */\n  swap5\n  pop\n    /* \"#utility.yul\":4561:4565   */\n  0x20\n    /* \"#utility.yul\":4558:4559   */\n  dup2\n    /* \"#utility.yul\":4554:4566   */\n  add\n    /* \"#utility.yul\":4549:4566   */\n  swap1\n  pop\n    /* \"#utility.yul\":4524:4732   */\n  jump(tag_82)\ntag_84:\n    /* \"#utility.yul\":4760:4766   */\n  dup7\n    /* \"#utility.yul\":4751:4758   */\n  dup4\n    /* \"#utility.yul\":4748:4767   */\n  lt\n    /* \"#utility.yul\":4745:4924   */\n  iszero\n  tag_85\n  jumpi\n    /* \"#utility.yul\":4818:4827   */\n  dup5\n    /* \"#utility.yul\":4813:4816   */\n  dup10\n    /* \"#utility.yul\":4809:4828   */\n  add\n    /* \"#utility.yul\":4803:4829   */\n  mload\n    /* \"#utility.yul\":4861:4909   */\n  tag_86\n    /* \"#utility.yul\":4903:4907   */\n  0x1f\n    /* \"#utility.yul\":4895:4901   */\n  dup10\n    /* \"#utility.yul\":4891:4908   */\n  and\n    /* \"#utility.yul\":4880:4889   */\n  dup3\n    /* \"#utility.yul\":4861:4909   */\n  tag_23\n  jump\t// in\ntag_86:\n    /* \"#utility.yul\":4853:4859   */\n  dup4\n    /* \"#utility.yul\":4846:4910   */\n  sstore\n    /* \"#utility.yul\":4768:4924   */\n  pop\n    /* \"#utility.yul\":4745:4924   */\ntag_85:\n    /* \"#utility.yul\":4970:4971   */\n  0x01\n    /* \"#utility.yul\":4966:4967   */\n  0x02\n    /* \"#utility.yul\":4958:4964   */\n  dup9\n    /* \"#utility.yul\":4954:4968   */\n  mul\n    /* \"#utility.yul\":4950:4972   */\n  add\n    /* \"#utility.yul\":4944:4948   */\n  dup9\n    /* \"#utility.yul\":4937:4973   */\n  sstore\n    /* \"#utility.yul\":4372:4983   */\n  pop\n  pop\n  pop\n    /* \"#utility.yul\":4335:5222   */\ntag_77:\n  pop\n    /* \"#utility.yul\":3925:5228   */\n  pop\n  pop\n  pop\n    /* \"#utility.yul\":3833:5228   */\n  pop\n  pop\n  jump\t// out\n    /* \"contracts/Examples/ExampleString.sol\":62:421  contract ExampleString {... */\ntag_4:\n  dataSize(sub_0)\n  dup1\n  dataOffset(sub_0)\n  0x00\n  codecopy\n  0x00\n  return\nstop\n\nsub_0: assembly {\n        /* \"contracts/Examples/ExampleString.sol\":62:421  contract ExampleString {... */\n      mstore(0x40, 0x80)\n      callvalue\n      dup1\n      iszero\n      tag_1\n      jumpi\n      0x00\n      dup1\n      revert\n    tag_1:\n      pop\n      jumpi(tag_2, lt(calldatasize, 0x04))\n      shr(0xe0, calldataload(0x00))\n      dup1\n      0x492bfa18\n      eq\n      tag_3\n      jumpi\n      dup1\n      0x82180568\n      eq\n      tag_4\n      jumpi\n      dup1\n      0x98a365a9\n      eq\n      tag_5\n      jumpi\n    tag_2:\n      0x00\n      dup1\n      revert\n        /* \"contracts/Examples/ExampleString.sol\":92:130  string public myString = \"Hello World\" */\n    tag_3:\n      tag_6\n      tag_7\n      jump\t// in\n    tag_6:\n      mload(0x40)\n      tag_8\n      swap2\n      swap1\n      tag_9\n      jump\t// in\n    tag_8:\n      mload(0x40)\n      dup1\n      swap2\n      sub\n      swap1\n      return\n        /* \"contracts/Examples/ExampleString.sol\":139:231  function setMyString(string memory _myString) public {... */\n    tag_4:\n      tag_10\n      0x04\n      dup1\n      calldatasize\n      sub\n      dup2\n      add\n      swap1\n      tag_11\n      swap2\n      swap1\n      tag_12\n      jump\t// in\n    tag_11:\n      tag_13\n      jump\t// in\n    tag_10:\n      stop\n        /* \"contracts/Examples/ExampleString.sol\":239:418  function stringCompare(string memory _myString) public view returns(bool) {... */\n    tag_5:\n      tag_14\n      0x04\n      dup1\n      calldatasize\n      sub\n      dup2\n      add\n      swap1\n      tag_15\n      swap2\n      swap1\n      tag_12\n      jump\t// in\n    tag_15:\n      tag_16\n      jump\t// in\n    tag_14:\n      mload(0x40)\n      tag_17\n      swap2\n      swap1\n      tag_18\n      jump\t// in\n    tag_17:\n      mload(0x40)\n      dup1\n      swap2\n      sub\n      swap1\n      return\n        /* \"contracts/Examples/ExampleString.sol\":92:130  string public myString = \"Hello World\" */\n    tag_7:\n      0x00\n      dup1\n      sload\n      tag_19\n      swap1\n      tag_20\n      jump\t// in\n    tag_19:\n      dup1\n      0x1f\n      add\n      0x20\n      dup1\n      swap2\n      div\n      mul\n      0x20\n      add\n      mload(0x40)\n      swap1\n      dup2\n      add\n      0x40\n      mstore\n      dup1\n      swap3\n      swap2\n      swap1\n      dup2\n      dup2\n      mstore\n      0x20\n      add\n      dup3\n      dup1\n      sload\n      tag_21\n      swap1\n      tag_20\n      jump\t// in\n    tag_21:\n      dup1\n      iszero\n      tag_22\n      jumpi\n      dup1\n      0x1f\n      lt\n      tag_23\n      jumpi\n      0x0100\n      dup1\n      dup4\n      sload\n      div\n      mul\n      dup4\n      mstore\n      swap2\n      0x20\n      add\n      swap2\n      jump(tag_22)\n    tag_23:\n      dup3\n      add\n      swap2\n      swap1\n      0x00\n      mstore\n      keccak256(0x00, 0x20)\n      swap1\n    tag_24:\n      dup2\n      sload\n      dup2\n      mstore\n      swap1\n      0x01\n      add\n      swap1\n      0x20\n      add\n      dup1\n      dup4\n      gt\n      tag_24\n      jumpi\n      dup3\n      swap1\n      sub\n      0x1f\n      and\n      dup3\n      add\n      swap2\n    tag_22:\n      pop\n      pop\n      pop\n      pop\n      pop\n      dup2\n      jump\t// out\n        /* \"contracts/Examples/ExampleString.sol\":139:231  function setMyString(string memory _myString) public {... */\n    tag_13:\n        /* \"contracts/Examples/ExampleString.sol\":214:223  _myString */\n      dup1\n        /* \"contracts/Examples/ExampleString.sol\":203:211  myString */\n      0x00\n        /* \"contracts/Examples/ExampleString.sol\":203:223  myString = _myString */\n      swap1\n      dup2\n      tag_26\n      swap2\n      swap1\n      tag_27\n      jump\t// in\n    tag_26:\n      pop\n        /* \"contracts/Examples/ExampleString.sol\":139:231  function setMyString(string memory _myString) public {... */\n      pop\n      jump\t// out\n        /* \"contracts/Examples/ExampleString.sol\":239:418  function stringCompare(string memory _myString) public view returns(bool) {... */\n    tag_16:\n        /* \"contracts/Examples/ExampleString.sol\":307:311  bool */\n      0x00\n        /* \"contracts/Examples/ExampleString.sol\":399:408  _myString */\n      dup2\n        /* \"contracts/Examples/ExampleString.sol\":382:409  abi.encodePacked(_myString) */\n      add(0x20, mload(0x40))\n      tag_29\n      swap2\n      swap1\n      tag_30\n      jump\t// in\n    tag_29:\n      mload(0x40)\n      0x20\n      dup2\n      dup4\n      sub\n      sub\n      dup2\n      mstore\n      swap1\n      0x40\n      mstore\n        /* \"contracts/Examples/ExampleString.sol\":372:410  keccak256(abi.encodePacked(_myString)) */\n      dup1\n      mload\n      swap1\n      0x20\n      add\n      keccak256\n        /* \"contracts/Examples/ExampleString.sol\":358:366  myString */\n      0x00\n        /* \"contracts/Examples/ExampleString.sol\":341:367  abi.encodePacked(myString) */\n      add(0x20, mload(0x40))\n      tag_31\n      swap2\n      swap1\n      tag_32\n      jump\t// in\n    tag_31:\n      mload(0x40)\n      0x20\n      dup2\n      dup4\n      sub\n      sub\n      dup2\n      mstore\n      swap1\n      0x40\n      mstore\n        /* \"contracts/Examples/ExampleString.sol\":331:368  keccak256(abi.encodePacked(myString)) */\n      dup1\n      mload\n      swap1\n      0x20\n      add\n      keccak256\n        /* \"contracts/Examples/ExampleString.sol\":331:410  keccak256(abi.encodePacked(myString)) == keccak256(abi.encodePacked(_myString)) */\n      eq\n        /* \"contracts/Examples/ExampleString.sol\":324:410  return keccak256(abi.encodePacked(myString)) == keccak256(abi.encodePacked(_myString)) */\n      swap1\n      pop\n        /* \"contracts/Examples/ExampleString.sol\":239:418  function stringCompare(string memory _myString) public view returns(bool) {... */\n      swap2\n      swap1\n      pop\n      jump\t// out\n        /* \"#utility.yul\":7:106   */\n    tag_33:\n        /* \"#utility.yul\":59:65   */\n      0x00\n        /* \"#utility.yul\":93:98   */\n      dup2\n        /* \"#utility.yul\":87:99   */\n      mload\n        /* \"#utility.yul\":77:99   */\n      swap1\n      pop\n        /* \"#utility.yul\":7:106   */\n      swap2\n      swap1\n      pop\n      jump\t// out\n        /* \"#utility.yul\":112:281   */\n    tag_34:\n        /* \"#utility.yul\":196:207   */\n      0x00\n        /* \"#utility.yul\":230:236   */\n      dup3\n        /* \"#utility.yul\":225:228   */\n      dup3\n        /* \"#utility.yul\":218:237   */\n      mstore\n        /* \"#utility.yul\":270:274   */\n      0x20\n        /* \"#utility.yul\":265:268   */\n      dup3\n        /* \"#utility.yul\":261:275   */\n      add\n        /* \"#utility.yul\":246:275   */\n      swap1\n      pop\n        /* \"#utility.yul\":112:281   */\n      swap3\n      swap2\n      pop\n      pop\n      jump\t// out\n        /* \"#utility.yul\":287:533   */\n    tag_35:\n        /* \"#utility.yul\":368:369   */\n      0x00\n        /* \"#utility.yul\":378:491   */\n    tag_76:\n        /* \"#utility.yul\":392:398   */\n      dup4\n        /* \"#utility.yul\":389:390   */\n      dup2\n        /* \"#utility.yul\":386:399   */\n      lt\n        /* \"#utility.yul\":378:491   */\n      iszero\n      tag_78\n      jumpi\n        /* \"#utility.yul\":477:478   */\n      dup1\n        /* \"#utility.yul\":472:475   */\n      dup3\n        /* \"#utility.yul\":468:479   */\n      add\n        /* \"#utility.yul\":462:480   */\n      mload\n        /* \"#utility.yul\":458:459   */\n      dup2\n        /* \"#utility.yul\":453:456   */\n      dup5\n        /* \"#utility.yul\":449:460   */\n      add\n        /* \"#utility.yul\":442:481   */\n      mstore\n        /* \"#utility.yul\":414:416   */\n      0x20\n        /* \"#utility.yul\":411:412   */\n      dup2\n        /* \"#utility.yul\":407:417   */\n      add\n        /* \"#utility.yul\":402:417   */\n      swap1\n      pop\n        /* \"#utility.yul\":378:491   */\n      jump(tag_76)\n    tag_78:\n        /* \"#utility.yul\":525:526   */\n      0x00\n        /* \"#utility.yul\":516:522   */\n      dup5\n        /* \"#utility.yul\":511:514   */\n      dup5\n        /* \"#utility.yul\":507:523   */\n      add\n        /* \"#utility.yul\":500:527   */\n      mstore\n        /* \"#utility.yul\":349:533   */\n      pop\n        /* \"#utility.yul\":287:533   */\n      pop\n      pop\n      pop\n      jump\t// out\n        /* \"#utility.yul\":539:641   */\n    tag_36:\n        /* \"#utility.yul\":580:586   */\n      0x00\n        /* \"#utility.yul\":631:633   */\n      0x1f\n        /* \"#utility.yul\":627:634   */\n      not\n        /* \"#utility.yul\":622:624   */\n      0x1f\n        /* \"#utility.yul\":615:620   */\n      dup4\n        /* \"#utility.yul\":611:625   */\n      add\n        /* \"#utility.yul\":607:635   */\n      and\n        /* \"#utility.yul\":597:635   */\n      swap1\n      pop\n        /* \"#utility.yul\":539:641   */\n      swap2\n      swap1\n      pop\n      jump\t// out\n        /* \"#utility.yul\":647:1024   */\n    tag_37:\n        /* \"#utility.yul\":735:738   */\n      0x00\n        /* \"#utility.yul\":763:802   */\n      tag_81\n        /* \"#utility.yul\":796:801   */\n      dup3\n        /* \"#utility.yul\":763:802   */\n      tag_33\n      jump\t// in\n    tag_81:\n        /* \"#utility.yul\":818:889   */\n      tag_82\n        /* \"#utility.yul\":882:888   */\n      dup2\n        /* \"#utility.yul\":877:880   */\n      dup6\n        /* \"#utility.yul\":818:889   */\n      tag_34\n      jump\t// in\n    tag_82:\n        /* \"#utility.yul\":811:889   */\n      swap4\n      pop\n        /* \"#utility.yul\":898:963   */\n      tag_83\n        /* \"#utility.yul\":956:962   */\n      dup2\n        /* \"#utility.yul\":951:954   */\n      dup6\n        /* \"#utility.yul\":944:948   */\n      0x20\n        /* \"#utility.yul\":937:942   */\n      dup7\n        /* \"#utility.yul\":933:949   */\n      add\n        /* \"#utility.yul\":898:963   */\n      tag_35\n      jump\t// in\n    tag_83:\n        /* \"#utility.yul\":988:1017   */\n      tag_84\n        /* \"#utility.yul\":1010:1016   */\n      dup2\n        /* \"#utility.yul\":988:1017   */\n      tag_36\n      jump\t// in\n    tag_84:\n        /* \"#utility.yul\":983:986   */\n      dup5\n        /* \"#utility.yul\":979:1018   */\n      add\n        /* \"#utility.yul\":972:1018   */\n      swap2\n      pop\n        /* \"#utility.yul\":739:1024   */\n      pop\n        /* \"#utility.yul\":647:1024   */\n      swap3\n      swap2\n      pop\n      pop\n      jump\t// out\n        /* \"#utility.yul\":1030:1343   */\n    tag_9:\n        /* \"#utility.yul\":1143:1147   */\n      0x00\n        /* \"#utility.yul\":1181:1183   */\n      0x20\n        /* \"#utility.yul\":1170:1179   */\n      dup3\n        /* \"#utility.yul\":1166:1184   */\n      add\n        /* \"#utility.yul\":1158:1184   */\n      swap1\n      pop\n        /* \"#utility.yul\":1230:1239   */\n      dup2\n        /* \"#utility.yul\":1224:1228   */\n      dup2\n        /* \"#utility.yul\":1220:1240   */\n      sub\n        /* \"#utility.yul\":1216:1217   */\n      0x00\n        /* \"#utility.yul\":1205:1214   */\n      dup4\n        /* \"#utility.yul\":1201:1218   */\n      add\n        /* \"#utility.yul\":1194:1241   */\n      mstore\n        /* \"#utility.yul\":1258:1336   */\n      tag_86\n        /* \"#utility.yul\":1331:1335   */\n      dup2\n        /* \"#utility.yul\":1322:1328   */\n      dup5\n        /* \"#utility.yul\":1258:1336   */\n      tag_37\n      jump\t// in\n    tag_86:\n        /* \"#utility.yul\":1250:1336   */\n      swap1\n      pop\n        /* \"#utility.yul\":1030:1343   */\n      swap3\n      swap2\n      pop\n      pop\n      jump\t// out\n        /* \"#utility.yul\":1349:1424   */\n    tag_38:\n        /* \"#utility.yul\":1382:1388   */\n      0x00\n        /* \"#utility.yul\":1415:1417   */\n      0x40\n        /* \"#utility.yul\":1409:1418   */\n      mload\n        /* \"#utility.yul\":1399:1418   */\n      swap1\n      pop\n        /* \"#utility.yul\":1349:1424   */\n      swap1\n      jump\t// out\n        /* \"#utility.yul\":1430:1547   */\n    tag_39:\n        /* \"#utility.yul\":1539:1540   */\n      0x00\n        /* \"#utility.yul\":1536:1537   */\n      dup1\n        /* \"#utility.yul\":1529:1541   */\n      revert\n        /* \"#utility.yul\":1553:1670   */\n    tag_40:\n        /* \"#utility.yul\":1662:1663   */\n      0x00\n        /* \"#utility.yul\":1659:1660   */\n      dup1\n        /* \"#utility.yul\":1652:1664   */\n      revert\n        /* \"#utility.yul\":1676:1793   */\n    tag_41:\n        /* \"#utility.yul\":1785:1786   */\n      0x00\n        /* \"#utility.yul\":1782:1783   */\n      dup1\n        /* \"#utility.yul\":1775:1787   */\n      revert\n        /* \"#utility.yul\":1799:1916   */\n    tag_42:\n        /* \"#utility.yul\":1908:1909   */\n      0x00\n        /* \"#utility.yul\":1905:1906   */\n      dup1\n        /* \"#utility.yul\":1898:1910   */\n      revert\n        /* \"#utility.yul\":1922:2102   */\n    tag_43:\n        /* \"#utility.yul\":1970:2047   */\n      0x4e487b7100000000000000000000000000000000000000000000000000000000\n        /* \"#utility.yul\":1967:1968   */\n      0x00\n        /* \"#utility.yul\":1960:2048   */\n      mstore\n        /* \"#utility.yul\":2067:2071   */\n      0x41\n        /* \"#utility.yul\":2064:2065   */\n      0x04\n        /* \"#utility.yul\":2057:2072   */\n      mstore\n        /* \"#utility.yul\":2091:2095   */\n      0x24\n        /* \"#utility.yul\":2088:2089   */\n      0x00\n        /* \"#utility.yul\":2081:2096   */\n      revert\n        /* \"#utility.yul\":2108:2389   */\n    tag_44:\n        /* \"#utility.yul\":2191:2218   */\n      tag_94\n        /* \"#utility.yul\":2213:2217   */\n      dup3\n        /* \"#utility.yul\":2191:2218   */\n      tag_36\n      jump\t// in\n    tag_94:\n        /* \"#utility.yul\":2183:2189   */\n      dup2\n        /* \"#utility.yul\":2179:2219   */\n      add\n        /* \"#utility.yul\":2321:2327   */\n      dup2\n        /* \"#utility.yul\":2309:2319   */\n      dup2\n        /* \"#utility.yul\":2306:2328   */\n      lt\n        /* \"#utility.yul\":2285:2303   */\n      0xffffffffffffffff\n        /* \"#utility.yul\":2273:2283   */\n      dup3\n        /* \"#utility.yul\":2270:2304   */\n      gt\n        /* \"#utility.yul\":2267:2329   */\n      or\n        /* \"#utility.yul\":2264:2352   */\n      iszero\n      tag_95\n      jumpi\n        /* \"#utility.yul\":2332:2350   */\n      tag_96\n      tag_43\n      jump\t// in\n    tag_96:\n        /* \"#utility.yul\":2264:2352   */\n    tag_95:\n        /* \"#utility.yul\":2372:2382   */\n      dup1\n        /* \"#utility.yul\":2368:2370   */\n      0x40\n        /* \"#utility.yul\":2361:2383   */\n      mstore\n        /* \"#utility.yul\":2151:2389   */\n      pop\n        /* \"#utility.yul\":2108:2389   */\n      pop\n      pop\n      jump\t// out\n        /* \"#utility.yul\":2395:2524   */\n    tag_45:\n        /* \"#utility.yul\":2429:2435   */\n      0x00\n        /* \"#utility.yul\":2456:2476   */\n      tag_98\n      tag_38\n      jump\t// in\n    tag_98:\n        /* \"#utility.yul\":2446:2476   */\n      swap1\n      pop\n        /* \"#utility.yul\":2485:2518   */\n      tag_99\n        /* \"#utility.yul\":2513:2517   */\n      dup3\n        /* \"#utility.yul\":2505:2511   */\n      dup3\n        /* \"#utility.yul\":2485:2518   */\n      tag_44\n      jump\t// in\n    tag_99:\n        /* \"#utility.yul\":2395:2524   */\n      swap2\n      swap1\n      pop\n      jump\t// out\n        /* \"#utility.yul\":2530:2838   */\n    tag_46:\n        /* \"#utility.yul\":2592:2596   */\n      0x00\n        /* \"#utility.yul\":2682:2700   */\n      0xffffffffffffffff\n        /* \"#utility.yul\":2674:2680   */\n      dup3\n        /* \"#utility.yul\":2671:2701   */\n      gt\n        /* \"#utility.yul\":2668:2724   */\n      iszero\n      tag_101\n      jumpi\n        /* \"#utility.yul\":2704:2722   */\n      tag_102\n      tag_43\n      jump\t// in\n    tag_102:\n        /* \"#utility.yul\":2668:2724   */\n    tag_101:\n        /* \"#utility.yul\":2742:2771   */\n      tag_103\n        /* \"#utility.yul\":2764:2770   */\n      dup3\n        /* \"#utility.yul\":2742:2771   */\n      tag_36\n      jump\t// in\n    tag_103:\n        /* \"#utility.yul\":2734:2771   */\n      swap1\n      pop\n        /* \"#utility.yul\":2826:2830   */\n      0x20\n        /* \"#utility.yul\":2820:2824   */\n      dup2\n        /* \"#utility.yul\":2816:2831   */\n      add\n        /* \"#utility.yul\":2808:2831   */\n      swap1\n      pop\n        /* \"#utility.yul\":2530:2838   */\n      swap2\n      swap1\n      pop\n      jump\t// out\n        /* \"#utility.yul\":2844:2990   */\n    tag_47:\n        /* \"#utility.yul\":2941:2947   */\n      dup3\n        /* \"#utility.yul\":2936:2939   */\n      dup2\n        /* \"#utility.yul\":2931:2934   */\n      dup4\n        /* \"#utility.yul\":2918:2948   */\n      calldatacopy\n        /* \"#utility.yul\":2982:2983   */\n      0x00\n        /* \"#utility.yul\":2973:2979   */\n      dup4\n        /* \"#utility.yul\":2968:2971   */\n      dup4\n        /* \"#utility.yul\":2964:2980   */\n      add\n        /* \"#utility.yul\":2957:2984   */\n      mstore\n        /* \"#utility.yul\":2844:2990   */\n      pop\n      pop\n      pop\n      jump\t// out\n        /* \"#utility.yul\":2996:3421   */\n    tag_48:\n        /* \"#utility.yul\":3074:3079   */\n      0x00\n        /* \"#utility.yul\":3099:3165   */\n      tag_106\n        /* \"#utility.yul\":3115:3164   */\n      tag_107\n        /* \"#utility.yul\":3157:3163   */\n      dup5\n        /* \"#utility.yul\":3115:3164   */\n      tag_46\n      jump\t// in\n    tag_107:\n        /* \"#utility.yul\":3099:3165   */\n      tag_45\n      jump\t// in\n    tag_106:\n        /* \"#utility.yul\":3090:3165   */\n      swap1\n      pop\n        /* \"#utility.yul\":3188:3194   */\n      dup3\n        /* \"#utility.yul\":3181:3186   */\n      dup2\n        /* \"#utility.yul\":3174:3195   */\n      mstore\n        /* \"#utility.yul\":3226:3230   */\n      0x20\n        /* \"#utility.yul\":3219:3224   */\n      dup2\n        /* \"#utility.yul\":3215:3231   */\n      add\n        /* \"#utility.yul\":3264:3267   */\n      dup5\n        /* \"#utility.yul\":3255:3261   */\n      dup5\n        /* \"#utility.yul\":3250:3253   */\n      dup5\n        /* \"#utility.yul\":3246:3262   */\n      add\n        /* \"#utility.yul\":3243:3268   */\n      gt\n        /* \"#utility.yul\":3240:3352   */\n      iszero\n      tag_108\n      jumpi\n        /* \"#utility.yul\":3271:3350   */\n      tag_109\n      tag_42\n      jump\t// in\n    tag_109:\n        /* \"#utility.yul\":3240:3352   */\n    tag_108:\n        /* \"#utility.yul\":3361:3415   */\n      tag_110\n        /* \"#utility.yul\":3408:3414   */\n      dup5\n        /* \"#utility.yul\":3403:3406   */\n      dup3\n        /* \"#utility.yul\":3398:3401   */\n      dup6\n        /* \"#utility.yul\":3361:3415   */\n      tag_47\n      jump\t// in\n    tag_110:\n        /* \"#utility.yul\":3080:3421   */\n      pop\n        /* \"#utility.yul\":2996:3421   */\n      swap4\n      swap3\n      pop\n      pop\n      pop\n      jump\t// out\n        /* \"#utility.yul\":3441:3781   */\n    tag_49:\n        /* \"#utility.yul\":3497:3502   */\n      0x00\n        /* \"#utility.yul\":3546:3549   */\n      dup3\n        /* \"#utility.yul\":3539:3543   */\n      0x1f\n        /* \"#utility.yul\":3531:3537   */\n      dup4\n        /* \"#utility.yul\":3527:3544   */\n      add\n        /* \"#utility.yul\":3523:3550   */\n      slt\n        /* \"#utility.yul\":3513:3635   */\n      tag_112\n      jumpi\n        /* \"#utility.yul\":3554:3633   */\n      tag_113\n      tag_41\n      jump\t// in\n    tag_113:\n        /* \"#utility.yul\":3513:3635   */\n    tag_112:\n        /* \"#utility.yul\":3671:3677   */\n      dup2\n        /* \"#utility.yul\":3658:3678   */\n      calldataload\n        /* \"#utility.yul\":3696:3775   */\n      tag_114\n        /* \"#utility.yul\":3771:3774   */\n      dup5\n        /* \"#utility.yul\":3763:3769   */\n      dup3\n        /* \"#utility.yul\":3756:3760   */\n      0x20\n        /* \"#utility.yul\":3748:3754   */\n      dup7\n        /* \"#utility.yul\":3744:3761   */\n      add\n        /* \"#utility.yul\":3696:3775   */\n      tag_48\n      jump\t// in\n    tag_114:\n        /* \"#utility.yul\":3687:3775   */\n      swap2\n      pop\n        /* \"#utility.yul\":3503:3781   */\n      pop\n        /* \"#utility.yul\":3441:3781   */\n      swap3\n      swap2\n      pop\n      pop\n      jump\t// out\n        /* \"#utility.yul\":3787:4296   */\n    tag_12:\n        /* \"#utility.yul\":3856:3862   */\n      0x00\n        /* \"#utility.yul\":3905:3907   */\n      0x20\n        /* \"#utility.yul\":3893:3902   */\n      dup3\n        /* \"#utility.yul\":3884:3891   */\n      dup5\n        /* \"#utility.yul\":3880:3903   */\n      sub\n        /* \"#utility.yul\":3876:3908   */\n      slt\n        /* \"#utility.yul\":3873:3992   */\n      iszero\n      tag_116\n      jumpi\n        /* \"#utility.yul\":3911:3990   */\n      tag_117\n      tag_39\n      jump\t// in\n    tag_117:\n        /* \"#utility.yul\":3873:3992   */\n    tag_116:\n        /* \"#utility.yul\":4059:4060   */\n      0x00\n        /* \"#utility.yul\":4048:4057   */\n      dup3\n        /* \"#utility.yul\":4044:4061   */\n      add\n        /* \"#utility.yul\":4031:4062   */\n      calldataload\n        /* \"#utility.yul\":4089:4107   */\n      0xffffffffffffffff\n        /* \"#utility.yul\":4081:4087   */\n      dup2\n        /* \"#utility.yul\":4078:4108   */\n      gt\n        /* \"#utility.yul\":4075:4192   */\n      iszero\n      tag_118\n      jumpi\n        /* \"#utility.yul\":4111:4190   */\n      tag_119\n      tag_40\n      jump\t// in\n    tag_119:\n        /* \"#utility.yul\":4075:4192   */\n    tag_118:\n        /* \"#utility.yul\":4216:4279   */\n      tag_120\n        /* \"#utility.yul\":4271:4278   */\n      dup5\n        /* \"#utility.yul\":4262:4268   */\n      dup3\n        /* \"#utility.yul\":4251:4260   */\n      dup6\n        /* \"#utility.yul\":4247:4269   */\n      add\n        /* \"#utility.yul\":4216:4279   */\n      tag_49\n      jump\t// in\n    tag_120:\n        /* \"#utility.yul\":4206:4279   */\n      swap2\n      pop\n        /* \"#utility.yul\":4002:4289   */\n      pop\n        /* \"#utility.yul\":3787:4296   */\n      swap3\n      swap2\n      pop\n      pop\n      jump\t// out\n        /* \"#utility.yul\":4302:4392   */\n    tag_50:\n        /* \"#utility.yul\":4336:4343   */\n      0x00\n        /* \"#utility.yul\":4379:4384   */\n      dup2\n        /* \"#utility.yul\":4372:4385   */\n      iszero\n        /* \"#utility.yul\":4365:4386   */\n      iszero\n        /* \"#utility.yul\":4354:4386   */\n      swap1\n      pop\n        /* \"#utility.yul\":4302:4392   */\n      swap2\n      swap1\n      pop\n      jump\t// out\n        /* \"#utility.yul\":4398:4507   */\n    tag_51:\n        /* \"#utility.yul\":4479:4500   */\n      tag_123\n        /* \"#utility.yul\":4494:4499   */\n      dup2\n        /* \"#utility.yul\":4479:4500   */\n      tag_50\n      jump\t// in\n    tag_123:\n        /* \"#utility.yul\":4474:4477   */\n      dup3\n        /* \"#utility.yul\":4467:4501   */\n      mstore\n        /* \"#utility.yul\":4398:4507   */\n      pop\n      pop\n      jump\t// out\n        /* \"#utility.yul\":4513:4723   */\n    tag_18:\n        /* \"#utility.yul\":4600:4604   */\n      0x00\n        /* \"#utility.yul\":4638:4640   */\n      0x20\n        /* \"#utility.yul\":4627:4636   */\n      dup3\n        /* \"#utility.yul\":4623:4641   */\n      add\n        /* \"#utility.yul\":4615:4641   */\n      swap1\n      pop\n        /* \"#utility.yul\":4651:4716   */\n      tag_125\n        /* \"#utility.yul\":4713:4714   */\n      0x00\n        /* \"#utility.yul\":4702:4711   */\n      dup4\n        /* \"#utility.yul\":4698:4715   */\n      add\n        /* \"#utility.yul\":4689:4695   */\n      dup5\n        /* \"#utility.yul\":4651:4716   */\n      tag_51\n      jump\t// in\n    tag_125:\n        /* \"#utility.yul\":4513:4723   */\n      swap3\n      swap2\n      pop\n      pop\n      jump\t// out\n        /* \"#utility.yul\":4729:4909   */\n    tag_52:\n        /* \"#utility.yul\":4777:4854   */\n      0x4e487b7100000000000000000000000000000000000000000000000000000000\n        /* \"#utility.yul\":4774:4775   */\n      0x00\n        /* \"#utility.yul\":4767:4855   */\n      mstore\n        /* \"#utility.yul\":4874:4878   */\n      0x22\n        /* \"#utility.yul\":4871:4872   */\n      0x04\n        /* \"#utility.yul\":4864:4879   */\n      mstore\n        /* \"#utility.yul\":4898:4902   */\n      0x24\n        /* \"#utility.yul\":4895:4896   */\n      0x00\n        /* \"#utility.yul\":4888:4903   */\n      revert\n        /* \"#utility.yul\":4915:5235   */\n    tag_20:\n        /* \"#utility.yul\":4959:4965   */\n      0x00\n        /* \"#utility.yul\":4996:4997   */\n      0x02\n        /* \"#utility.yul\":4990:4994   */\n      dup3\n        /* \"#utility.yul\":4986:4998   */\n      div\n        /* \"#utility.yul\":4976:4998   */\n      swap1\n      pop\n        /* \"#utility.yul\":5043:5044   */\n      0x01\n        /* \"#utility.yul\":5037:5041   */\n      dup3\n        /* \"#utility.yul\":5033:5045   */\n      and\n        /* \"#utility.yul\":5064:5082   */\n      dup1\n        /* \"#utility.yul\":5054:5135   */\n      tag_128\n      jumpi\n        /* \"#utility.yul\":5120:5124   */\n      0x7f\n        /* \"#utility.yul\":5112:5118   */\n      dup3\n        /* \"#utility.yul\":5108:5125   */\n      and\n        /* \"#utility.yul\":5098:5125   */\n      swap2\n      pop\n        /* \"#utility.yul\":5054:5135   */\n    tag_128:\n        /* \"#utility.yul\":5182:5184   */\n      0x20\n        /* \"#utility.yul\":5174:5180   */\n      dup3\n        /* \"#utility.yul\":5171:5185   */\n      lt\n        /* \"#utility.yul\":5151:5169   */\n      dup2\n        /* \"#utility.yul\":5148:5186   */\n      sub\n        /* \"#utility.yul\":5145:5229   */\n      tag_129\n      jumpi\n        /* \"#utility.yul\":5201:5219   */\n      tag_130\n      tag_52\n      jump\t// in\n    tag_130:\n        /* \"#utility.yul\":5145:5229   */\n    tag_129:\n        /* \"#utility.yul\":4966:5235   */\n      pop\n        /* \"#utility.yul\":4915:5235   */\n      swap2\n      swap1\n      pop\n      jump\t// out\n        /* \"#utility.yul\":5241:5382   */\n    tag_53:\n        /* \"#utility.yul\":5290:5294   */\n      0x00\n        /* \"#utility.yul\":5313:5316   */\n      dup2\n        /* \"#utility.yul\":5305:5316   */\n      swap1\n      pop\n        /* \"#utility.yul\":5336:5339   */\n      dup2\n        /* \"#utility.yul\":5333:5334   */\n      0x00\n        /* \"#utility.yul\":5326:5340   */\n      mstore\n        /* \"#utility.yul\":5370:5374   */\n      0x20\n        /* \"#utility.yul\":5367:5368   */\n      0x00\n        /* \"#utility.yul\":5357:5375   */\n      keccak256\n        /* \"#utility.yul\":5349:5375   */\n      swap1\n      pop\n        /* \"#utility.yul\":5241:5382   */\n      swap2\n      swap1\n      pop\n      jump\t// out\n        /* \"#utility.yul\":5388:5481   */\n    tag_54:\n        /* \"#utility.yul\":5425:5431   */\n      0x00\n        /* \"#utility.yul\":5472:5474   */\n      0x20\n        /* \"#utility.yul\":5467:5469   */\n      0x1f\n        /* \"#utility.yul\":5460:5465   */\n      dup4\n        /* \"#utility.yul\":5456:5470   */\n      add\n        /* \"#utility.yul\":5452:5475   */\n      div\n        /* \"#utility.yul\":5442:5475   */\n      swap1\n      pop\n        /* \"#utility.yul\":5388:5481   */\n      swap2\n      swap1\n      pop\n      jump\t// out\n        /* \"#utility.yul\":5487:5594   */\n    tag_55:\n        /* \"#utility.yul\":5531:5539   */\n      0x00\n        /* \"#utility.yul\":5581:5586   */\n      dup3\n        /* \"#utility.yul\":5575:5579   */\n      dup3\n        /* \"#utility.yul\":5571:5587   */\n      shl\n        /* \"#utility.yul\":5550:5587   */\n      swap1\n      pop\n        /* \"#utility.yul\":5487:5594   */\n      swap3\n      swap2\n      pop\n      pop\n      jump\t// out\n        /* \"#utility.yul\":5600:5993   */\n    tag_56:\n        /* \"#utility.yul\":5669:5675   */\n      0x00\n        /* \"#utility.yul\":5719:5720   */\n      0x08\n        /* \"#utility.yul\":5707:5717   */\n      dup4\n        /* \"#utility.yul\":5703:5721   */\n      mul\n        /* \"#utility.yul\":5742:5839   */\n      tag_135\n        /* \"#utility.yul\":5772:5838   */\n      0xffffffffffffffffffffffffffffffffffffffffffffffffffffffffffffffff\n        /* \"#utility.yul\":5761:5770   */\n      dup3\n        /* \"#utility.yul\":5742:5839   */\n      tag_55\n      jump\t// in\n    tag_135:\n        /* \"#utility.yul\":5860:5899   */\n      tag_136\n        /* \"#utility.yul\":5890:5898   */\n      dup7\n        /* \"#utility.yul\":5879:5888   */\n      dup4\n        /* \"#utility.yul\":5860:5899   */\n      tag_55\n      jump\t// in\n    tag_136:\n        /* \"#utility.yul\":5848:5899   */\n      swap6\n      pop\n        /* \"#utility.yul\":5932:5936   */\n      dup1\n        /* \"#utility.yul\":5928:5937   */\n      not\n        /* \"#utility.yul\":5921:5926   */\n      dup5\n        /* \"#utility.yul\":5917:5938   */\n      and\n        /* \"#utility.yul\":5908:5938   */\n      swap4\n      pop\n        /* \"#utility.yul\":5981:5985   */\n      dup1\n        /* \"#utility.yul\":5971:5979   */\n      dup7\n        /* \"#utility.yul\":5967:5986   */\n      and\n        /* \"#utility.yul\":5960:5965   */\n      dup5\n        /* \"#utility.yul\":5957:5987   */\n      or\n        /* \"#utility.yul\":5947:5987   */\n      swap3\n      pop\n        /* \"#utility.yul\":5676:5993   */\n      pop\n      pop\n        /* \"#utility.yul\":5600:5993   */\n      swap4\n      swap3\n      pop\n      pop\n      pop\n      jump\t// out\n        /* \"#utility.yul\":5999:6076   */\n    tag_57:\n        /* \"#utility.yul\":6036:6043   */\n      0x00\n        /* \"#utility.yul\":6065:6070   */\n      dup2\n        /* \"#utility.yul\":6054:6070   */\n      swap1\n      pop\n        /* \"#utility.yul\":5999:6076   */\n      swap2\n      swap1\n      pop\n      jump\t// out\n        /* \"#utility.yul\":6082:6142   */\n    tag_58:\n        /* \"#utility.yul\":6110:6113   */\n      0x00\n        /* \"#utility.yul\":6131:6136   */\n      dup2\n        /* \"#utility.yul\":6124:6136   */\n      swap1\n      pop\n        /* \"#utility.yul\":6082:6142   */\n      swap2\n      swap1\n      pop\n      jump\t// out\n        /* \"#utility.yul\":6148:6290   */\n    tag_59:\n        /* \"#utility.yul\":6198:6207   */\n      0x00\n        /* \"#utility.yul\":6231:6284   */\n      tag_140\n        /* \"#utility.yul\":6249:6283   */\n      tag_141\n        /* \"#utility.yul\":6258:6282   */\n      tag_142\n        /* \"#utility.yul\":6276:6281   */\n      dup5\n        /* \"#utility.yul\":6258:6282   */\n      tag_57\n      jump\t// in\n    tag_142:\n        /* \"#utility.yul\":6249:6283   */\n      tag_58\n      jump\t// in\n    tag_141:\n        /* \"#utility.yul\":6231:6284   */\n      tag_57\n      jump\t// in\n    tag_140:\n        /* \"#utility.yul\":6218:6284   */\n      swap1\n      pop\n        /* \"#utility.yul\":6148:6290   */\n      swap2\n      swap1\n      pop\n      jump\t// out\n        /* \"#utility.yul\":6296:6371   */\n    tag_60:\n        /* \"#utility.yul\":6339:6342   */\n      0x00\n        /* \"#utility.yul\":6360:6365   */\n      dup2\n        /* \"#utility.yul\":6353:6365   */\n      swap1\n      pop\n        /* \"#utility.yul\":6296:6371   */\n      swap2\n      swap1\n      pop\n      jump\t// out\n        /* \"#utility.yul\":6377:6646   */\n    tag_61:\n        /* \"#utility.yul\":6487:6526   */\n      tag_145\n        /* \"#utility.yul\":6518:6525   */\n      dup4\n        /* \"#utility.yul\":6487:6526   */\n      tag_59\n      jump\t// in\n    tag_145:\n        /* \"#utility.yul\":6548:6639   */\n      tag_146\n        /* \"#utility.yul\":6597:6638   */\n      tag_147\n        /* \"#utility.yul\":6621:6637   */\n      dup3\n        /* \"#utility.yul\":6597:6638   */\n      tag_60\n      jump\t// in\n    tag_147:\n        /* \"#utility.yul\":6589:6595   */\n      dup5\n        /* \"#utility.yul\":6582:6586   */\n      dup5\n        /* \"#utility.yul\":6576:6587   */\n      sload\n        /* \"#utility.yul\":6548:6639   */\n      tag_56\n      jump\t// in\n    tag_146:\n        /* \"#utility.yul\":6542:6546   */\n      dup3\n        /* \"#utility.yul\":6535:6640   */\n      sstore\n        /* \"#utility.yul\":6453:6646   */\n      pop\n        /* \"#utility.yul\":6377:6646   */\n      pop\n      pop\n      pop\n      jump\t// out\n        /* \"#utility.yul\":6652:6725   */\n    tag_62:\n        /* \"#utility.yul\":6697:6700   */\n      0x00\n        /* \"#utility.yul\":6652:6725   */\n      swap1\n      jump\t// out\n        /* \"#utility.yul\":6731:6920   */\n    tag_63:\n        /* \"#utility.yul\":6808:6840   */\n      tag_150\n      tag_62\n      jump\t// in\n    tag_150:\n        /* \"#utility.yul\":6849:6914   */\n      tag_151\n        /* \"#utility.yul\":6907:6913   */\n      dup2\n        /* \"#utility.yul\":6899:6905   */\n      dup5\n        /* \"#utility.yul\":6893:6897   */\n      dup5\n        /* \"#utility.yul\":6849:6914   */\n      tag_61\n      jump\t// in\n    tag_151:\n        /* \"#utility.yul\":6784:6920   */\n      pop\n        /* \"#utility.yul\":6731:6920   */\n      pop\n      pop\n      jump\t// out\n        /* \"#utility.yul\":6926:7112   */\n    tag_64:\n        /* \"#utility.yul\":6986:7106   */\n    tag_153:\n        /* \"#utility.yul\":7003:7006   */\n      dup2\n        /* \"#utility.yul\":6996:7001   */\n      dup2\n        /* \"#utility.yul\":6993:7007   */\n      lt\n        /* \"#utility.yul\":6986:7106   */\n      iszero\n      tag_155\n      jumpi\n        /* \"#utility.yul\":7057:7096   */\n      tag_156\n        /* \"#utility.yul\":7094:7095   */\n      0x00\n        /* \"#utility.yul\":7087:7092   */\n      dup3\n        /* \"#utility.yul\":7057:7096   */\n      tag_63\n      jump\t// in\n    tag_156:\n        /* \"#utility.yul\":7030:7031   */\n      0x01\n        /* \"#utility.yul\":7023:7028   */\n      dup2\n        /* \"#utility.yul\":7019:7032   */\n      add\n        /* \"#utility.yul\":7010:7032   */\n      swap1\n      pop\n        /* \"#utility.yul\":6986:7106   */\n      jump(tag_153)\n    tag_155:\n        /* \"#utility.yul\":6926:7112   */\n      pop\n      pop\n      jump\t// out\n        /* \"#utility.yul\":7118:7661   */\n    tag_65:\n        /* \"#utility.yul\":7219:7221   */\n      0x1f\n        /* \"#utility.yul\":7214:7217   */\n      dup3\n        /* \"#utility.yul\":7211:7222   */\n      gt\n        /* \"#utility.yul\":7208:7654   */\n      iszero\n      tag_158\n      jumpi\n        /* \"#utility.yul\":7253:7291   */\n      tag_159\n        /* \"#utility.yul\":7285:7290   */\n      dup2\n        /* \"#utility.yul\":7253:7291   */\n      tag_53\n      jump\t// in\n    tag_159:\n        /* \"#utility.yul\":7337:7366   */\n      tag_160\n        /* \"#utility.yul\":7355:7365   */\n      dup5\n        /* \"#utility.yul\":7337:7366   */\n      tag_54\n      jump\t// in\n    tag_160:\n        /* \"#utility.yul\":7327:7335   */\n      dup2\n        /* \"#utility.yul\":7323:7367   */\n      add\n        /* \"#utility.yul\":7520:7522   */\n      0x20\n        /* \"#utility.yul\":7508:7518   */\n      dup6\n        /* \"#utility.yul\":7505:7523   */\n      lt\n        /* \"#utility.yul\":7502:7551   */\n      iszero\n      tag_161\n      jumpi\n        /* \"#utility.yul\":7541:7549   */\n      dup2\n        /* \"#utility.yul\":7526:7549   */\n      swap1\n      pop\n        /* \"#utility.yul\":7502:7551   */\n    tag_161:\n        /* \"#utility.yul\":7564:7644   */\n      tag_162\n        /* \"#utility.yul\":7620:7642   */\n      tag_163\n        /* \"#utility.yul\":7638:7641   */\n      dup6\n        /* \"#utility.yul\":7620:7642   */\n      tag_54\n      jump\t// in\n    tag_163:\n        /* \"#utility.yul\":7610:7618   */\n      dup4\n        /* \"#utility.yul\":7606:7643   */\n      add\n        /* \"#utility.yul\":7593:7604   */\n      dup3\n        /* \"#utility.yul\":7564:7644   */\n      tag_64\n      jump\t// in\n    tag_162:\n        /* \"#utility.yul\":7223:7654   */\n      pop\n      pop\n        /* \"#utility.yul\":7208:7654   */\n    tag_158:\n        /* \"#utility.yul\":7118:7661   */\n      pop\n      pop\n      pop\n      jump\t// out\n        /* \"#utility.yul\":7667:7784   */\n    tag_66:\n        /* \"#utility.yul\":7721:7729   */\n      0x00\n        /* \"#utility.yul\":7771:7776   */\n      dup3\n        /* \"#utility.yul\":7765:7769   */\n      dup3\n        /* \"#utility.yul\":7761:7777   */\n      shr\n        /* \"#utility.yul\":7740:7777   */\n      swap1\n      pop\n        /* \"#utility.yul\":7667:7784   */\n      swap3\n      swap2\n      pop\n      pop\n      jump\t// out\n        /* \"#utility.yul\":7790:7959   */\n    tag_67:\n        /* \"#utility.yul\":7834:7840   */\n      0x00\n        /* \"#utility.yul\":7867:7918   */\n      tag_166\n        /* \"#utility.yul\":7915:7916   */\n      0x00\n        /* \"#utility.yul\":7911:7917   */\n      not\n        /* \"#utility.yul\":7903:7908   */\n      dup5\n        /* \"#utility.yul\":7900:7901   */\n      0x08\n        /* \"#utility.yul\":7896:7909   */\n      mul\n        /* \"#utility.yul\":7867:7918   */\n      tag_66\n      jump\t// in\n    tag_166:\n        /* \"#utility.yul\":7863:7919   */\n      not\n        /* \"#utility.yul\":7948:7952   */\n      dup1\n        /* \"#utility.yul\":7942:7946   */\n      dup4\n        /* \"#utility.yul\":7938:7953   */\n      and\n        /* \"#utility.yul\":7928:7953   */\n      swap2\n      pop\n        /* \"#utility.yul\":7841:7959   */\n      pop\n        /* \"#utility.yul\":7790:7959   */\n      swap3\n      swap2\n      pop\n      pop\n      jump\t// out\n        /* \"#utility.yul\":7964:8259   */\n    tag_68:\n        /* \"#utility.yul\":8040:8044   */\n      0x00\n        /* \"#utility.yul\":8186:8215   */\n      tag_168\n        /* \"#utility.yul\":8211:8214   */\n      dup4\n        /* \"#utility.yul\":8205:8209   */\n      dup4\n        /* \"#utility.yul\":8186:8215   */\n      tag_67\n      jump\t// in\n    tag_168:\n        /* \"#utility.yul\":8178:8215   */\n      swap2\n      pop\n        /* \"#utility.yul\":8248:8251   */\n      dup3\n        /* \"#utility.yul\":8245:8246   */\n      0x02\n        /* \"#utility.yul\":8241:8252   */\n      mul\n        /* \"#utility.yul\":8235:8239   */\n      dup3\n        /* \"#utility.yul\":8232:8253   */\n      or\n        /* \"#utility.yul\":8224:8253   */\n      swap1\n      pop\n        /* \"#utility.yul\":7964:8259   */\n      swap3\n      swap2\n      pop\n      pop\n      jump\t// out\n        /* \"#utility.yul\":8264:9659   */\n    tag_27:\n        /* \"#utility.yul\":8381:8418   */\n      tag_170\n        /* \"#utility.yul\":8414:8417   */\n      dup3\n        /* \"#utility.yul\":8381:8418   */\n      tag_33\n      jump\t// in\n    tag_170:\n        /* \"#utility.yul\":8483:8501   */\n      0xffffffffffffffff\n        /* \"#utility.yul\":8475:8481   */\n      dup2\n        /* \"#utility.yul\":8472:8502   */\n      gt\n        /* \"#utility.yul\":8469:8525   */\n      iszero\n      tag_171\n      jumpi\n        /* \"#utility.yul\":8505:8523   */\n      tag_172\n      tag_43\n      jump\t// in\n    tag_172:\n        /* \"#utility.yul\":8469:8525   */\n    tag_171:\n        /* \"#utility.yul\":8549:8587   */\n      tag_173\n        /* \"#utility.yul\":8581:8585   */\n      dup3\n        /* \"#utility.yul\":8575:8586   */\n      sload\n        /* \"#utility.yul\":8549:8587   */\n      tag_20\n      jump\t// in\n    tag_173:\n        /* \"#utility.yul\":8634:8701   */\n      tag_174\n        /* \"#utility.yul\":8694:8700   */\n      dup3\n        /* \"#utility.yul\":8686:8692   */\n      dup3\n        /* \"#utility.yul\":8680:8684   */\n      dup6\n        /* \"#utility.yul\":8634:8701   */\n      tag_65\n      jump\t// in\n    tag_174:\n        /* \"#utility.yul\":8728:8729   */\n      0x00\n        /* \"#utility.yul\":8752:8756   */\n      0x20\n        /* \"#utility.yul\":8739:8756   */\n      swap1\n      pop\n        /* \"#utility.yul\":8784:8786   */\n      0x1f\n        /* \"#utility.yul\":8776:8782   */\n      dup4\n        /* \"#utility.yul\":8773:8787   */\n      gt\n        /* \"#utility.yul\":8801:8802   */\n      0x01\n        /* \"#utility.yul\":8796:9414   */\n      dup2\n      eq\n      tag_176\n      jumpi\n        /* \"#utility.yul\":9458:9459   */\n      0x00\n        /* \"#utility.yul\":9475:9481   */\n      dup5\n        /* \"#utility.yul\":9472:9549   */\n      iszero\n      tag_177\n      jumpi\n        /* \"#utility.yul\":9524:9533   */\n      dup3\n        /* \"#utility.yul\":9519:9522   */\n      dup8\n        /* \"#utility.yul\":9515:9534   */\n      add\n        /* \"#utility.yul\":9509:9535   */\n      mload\n        /* \"#utility.yul\":9500:9535   */\n      swap1\n      pop\n        /* \"#utility.yul\":9472:9549   */\n    tag_177:\n        /* \"#utility.yul\":9575:9642   */\n      tag_178\n        /* \"#utility.yul\":9635:9641   */\n      dup6\n        /* \"#utility.yul\":9628:9633   */\n      dup3\n        /* \"#utility.yul\":9575:9642   */\n      tag_68\n      jump\t// in\n    tag_178:\n        /* \"#utility.yul\":9569:9573   */\n      dup7\n        /* \"#utility.yul\":9562:9643   */\n      sstore\n        /* \"#utility.yul\":9431:9653   */\n      pop\n        /* \"#utility.yul\":8766:9653   */\n      jump(tag_175)\n        /* \"#utility.yul\":8796:9414   */\n    tag_176:\n        /* \"#utility.yul\":8848:8852   */\n      0x1f\n        /* \"#utility.yul\":8844:8853   */\n      not\n        /* \"#utility.yul\":8836:8842   */\n      dup5\n        /* \"#utility.yul\":8832:8854   */\n      and\n        /* \"#utility.yul\":8882:8919   */\n      tag_179\n        /* \"#utility.yul\":8914:8918   */\n      dup7\n        /* \"#utility.yul\":8882:8919   */\n      tag_53\n      jump\t// in\n    tag_179:\n        /* \"#utility.yul\":8941:8942   */\n      0x00\n        /* \"#utility.yul\":8955:9163   */\n    tag_180:\n        /* \"#utility.yul\":8969:8976   */\n      dup3\n        /* \"#utility.yul\":8966:8967   */\n      dup2\n        /* \"#utility.yul\":8963:8977   */\n      lt\n        /* \"#utility.yul\":8955:9163   */\n      iszero\n      tag_182\n      jumpi\n        /* \"#utility.yul\":9048:9057   */\n      dup5\n        /* \"#utility.yul\":9043:9046   */\n      dup10\n        /* \"#utility.yul\":9039:9058   */\n      add\n        /* \"#utility.yul\":9033:9059   */\n      mload\n        /* \"#utility.yul\":9025:9031   */\n      dup3\n        /* \"#utility.yul\":9018:9060   */\n      sstore\n        /* \"#utility.yul\":9099:9100   */\n      0x01\n        /* \"#utility.yul\":9091:9097   */\n      dup3\n        /* \"#utility.yul\":9087:9101   */\n      add\n        /* \"#utility.yul\":9077:9101   */\n      swap2\n      pop\n        /* \"#utility.yul\":9146:9148   */\n      0x20\n        /* \"#utility.yul\":9135:9144   */\n      dup6\n        /* \"#utility.yul\":9131:9149   */\n      add\n        /* \"#utility.yul\":9118:9149   */\n      swap5\n      pop\n        /* \"#utility.yul\":8992:8996   */\n      0x20\n        /* \"#utility.yul\":8989:8990   */\n      dup2\n        /* \"#utility.yul\":8985:8997   */\n      add\n        /* \"#utility.yul\":8980:8997   */\n      swap1\n      pop\n        /* \"#utility.yul\":8955:9163   */\n      jump(tag_180)\n    tag_182:\n        /* \"#utility.yul\":9191:9197   */\n      dup7\n        /* \"#utility.yul\":9182:9189   */\n      dup4\n        /* \"#utility.yul\":9179:9198   */\n      lt\n        /* \"#utility.yul\":9176:9355   */\n      iszero\n      tag_183\n      jumpi\n        /* \"#utility.yul\":9249:9258   */\n      dup5\n        /* \"#utility.yul\":9244:9247   */\n      dup10\n        /* \"#utility.yul\":9240:9259   */\n      add\n        /* \"#utility.yul\":9234:9260   */\n      mload\n        /* \"#utility.yul\":9292:9340   */\n      tag_184\n        /* \"#utility.yul\":9334:9338   */\n      0x1f\n        /* \"#utility.yul\":9326:9332   */\n      dup10\n        /* \"#utility.yul\":9322:9339   */\n      and\n        /* \"#utility.yul\":9311:9320   */\n      dup3\n        /* \"#utility.yul\":9292:9340   */\n      tag_67\n      jump\t// in\n    tag_184:\n        /* \"#utility.yul\":9284:9290   */\n      dup4\n        /* \"#utility.yul\":9277:9341   */\n      sstore\n        /* \"#utility.yul\":9199:9355   */\n      pop\n        /* \"#utility.yul\":9176:9355   */\n    tag_183:\n        /* \"#utility.yul\":9401:9402   */\n      0x01\n        /* \"#utility.yul\":9397:9398   */\n      0x02\n        /* \"#utility.yul\":9389:9395   */\n      dup9\n        /* \"#utility.yul\":9385:9399   */\n      mul\n        /* \"#utility.yul\":9381:9403   */\n      add\n        /* \"#utility.yul\":9375:9379   */\n      dup9\n        /* \"#utility.yul\":9368:9404   */\n      sstore\n        /* \"#utility.yul\":8803:9414   */\n      pop\n      pop\n      pop\n        /* \"#utility.yul\":8766:9653   */\n    tag_175:\n      pop\n        /* \"#utility.yul\":8356:9659   */\n      pop\n      pop\n      pop\n        /* \"#utility.yul\":8264:9659   */\n      pop\n      pop\n      jump\t// out\n        /* \"#utility.yul\":9665:9813   */\n    tag_69:\n        /* \"#utility.yul\":9767:9778   */\n      0x00\n        /* \"#utility.yul\":9804:9807   */\n      dup2\n        /* \"#utility.yul\":9789:9807   */\n      swap1\n      pop\n        /* \"#utility.yul\":9665:9813   */\n      swap3\n      swap2\n      pop\n      pop\n      jump\t// out\n        /* \"#utility.yul\":9819:10209   */\n    tag_70:\n        /* \"#utility.yul\":9925:9928   */\n      0x00\n        /* \"#utility.yul\":9953:9992   */\n      tag_187\n        /* \"#utility.yul\":9986:9991   */\n      dup3\n        /* \"#utility.yul\":9953:9992   */\n      tag_33\n      jump\t// in\n    tag_187:\n        /* \"#utility.yul\":10008:10097   */\n      tag_188\n        /* \"#utility.yul\":10090:10096   */\n      dup2\n        /* \"#utility.yul\":10085:10088   */\n      dup6\n        /* \"#utility.yul\":10008:10097   */\n      tag_69\n      jump\t// in\n    tag_188:\n        /* \"#utility.yul\":10001:10097   */\n      swap4\n      pop\n        /* \"#utility.yul\":10106:10171   */\n      tag_189\n        /* \"#utility.yul\":10164:10170   */\n      dup2\n        /* \"#utility.yul\":10159:10162   */\n      dup6\n        /* \"#utility.yul\":10152:10156   */\n      0x20\n        /* \"#utility.yul\":10145:10150   */\n      dup7\n        /* \"#utility.yul\":10141:10157   */\n      add\n        /* \"#utility.yul\":10106:10171   */\n      tag_35\n      jump\t// in\n    tag_189:\n        /* \"#utility.yul\":10196:10202   */\n      dup1\n        /* \"#utility.yul\":10191:10194   */\n      dup5\n        /* \"#utility.yul\":10187:10203   */\n      add\n        /* \"#utility.yul\":10180:10203   */\n      swap2\n      pop\n        /* \"#utility.yul\":9929:10209   */\n      pop\n        /* \"#utility.yul\":9819:10209   */\n      swap3\n      swap2\n      pop\n      pop\n      jump\t// out\n        /* \"#utility.yul\":10215:10490   */\n    tag_30:\n        /* \"#utility.yul\":10347:10350   */\n      0x00\n        /* \"#utility.yul\":10369:10464   */\n      tag_191\n        /* \"#utility.yul\":10460:10463   */\n      dup3\n        /* \"#utility.yul\":10451:10457   */\n      dup5\n        /* \"#utility.yul\":10369:10464   */\n      tag_70\n      jump\t// in\n    tag_191:\n        /* \"#utility.yul\":10362:10464   */\n      swap2\n      pop\n        /* \"#utility.yul\":10481:10484   */\n      dup2\n        /* \"#utility.yul\":10474:10484   */\n      swap1\n      pop\n        /* \"#utility.yul\":10215:10490   */\n      swap3\n      swap2\n      pop\n      pop\n      jump\t// out\n        /* \"#utility.yul\":10520:11394   */\n    tag_71:\n        /* \"#utility.yul\":10623:10626   */\n      0x00\n        /* \"#utility.yul\":10660:10665   */\n      dup2\n        /* \"#utility.yul\":10654:10666   */\n      sload\n        /* \"#utility.yul\":10689:10725   */\n      tag_193\n        /* \"#utility.yul\":10715:10724   */\n      dup2\n        /* \"#utility.yul\":10689:10725   */\n      tag_20\n      jump\t// in\n    tag_193:\n        /* \"#utility.yul\":10741:10830   */\n      tag_194\n        /* \"#utility.yul\":10823:10829   */\n      dup2\n        /* \"#utility.yul\":10818:10821   */\n      dup7\n        /* \"#utility.yul\":10741:10830   */\n      tag_69\n      jump\t// in\n    tag_194:\n        /* \"#utility.yul\":10734:10830   */\n      swap5\n      pop\n        /* \"#utility.yul\":10861:10862   */\n      0x01\n        /* \"#utility.yul\":10850:10859   */\n      dup3\n        /* \"#utility.yul\":10846:10863   */\n      and\n        /* \"#utility.yul\":10877:10878   */\n      0x00\n        /* \"#utility.yul\":10872:11038   */\n      dup2\n      eq\n      tag_196\n      jumpi\n        /* \"#utility.yul\":11052:11053   */\n      0x01\n        /* \"#utility.yul\":11047:11388   */\n      dup2\n      eq\n      tag_197\n      jumpi\n        /* \"#utility.yul\":10839:11388   */\n      jump(tag_195)\n        /* \"#utility.yul\":10872:11038   */\n    tag_196:\n        /* \"#utility.yul\":10956:10960   */\n      0xff\n        /* \"#utility.yul\":10952:10961   */\n      not\n        /* \"#utility.yul\":10941:10950   */\n      dup4\n        /* \"#utility.yul\":10937:10962   */\n      and\n        /* \"#utility.yul\":10932:10935   */\n      dup7\n        /* \"#utility.yul\":10925:10963   */\n      mstore\n        /* \"#utility.yul\":11018:11024   */\n      dup2\n        /* \"#utility.yul\":11011:11025   */\n      iszero\n        /* \"#utility.yul\":11004:11026   */\n      iszero\n        /* \"#utility.yul\":10996:11002   */\n      dup3\n        /* \"#utility.yul\":10992:11027   */\n      mul\n        /* \"#utility.yul\":10987:10990   */\n      dup7\n        /* \"#utility.yul\":10983:11028   */\n      add\n        /* \"#utility.yul\":10976:11028   */\n      swap4\n      pop\n        /* \"#utility.yul\":10872:11038   */\n      jump(tag_195)\n        /* \"#utility.yul\":11047:11388   */\n    tag_197:\n        /* \"#utility.yul\":11114:11152   */\n      tag_198\n        /* \"#utility.yul\":11146:11151   */\n      dup6\n        /* \"#utility.yul\":11114:11152   */\n      tag_53\n      jump\t// in\n    tag_198:\n        /* \"#utility.yul\":11174:11175   */\n      0x00\n        /* \"#utility.yul\":11188:11342   */\n    tag_199:\n        /* \"#utility.yul\":11202:11208   */\n      dup4\n        /* \"#utility.yul\":11199:11200   */\n      dup2\n        /* \"#utility.yul\":11196:11209   */\n      lt\n        /* \"#utility.yul\":11188:11342   */\n      iszero\n      tag_201\n      jumpi\n        /* \"#utility.yul\":11276:11283   */\n      dup2\n        /* \"#utility.yul\":11270:11284   */\n      sload\n        /* \"#utility.yul\":11266:11267   */\n      dup2\n        /* \"#utility.yul\":11261:11264   */\n      dup10\n        /* \"#utility.yul\":11257:11268   */\n      add\n        /* \"#utility.yul\":11250:11285   */\n      mstore\n        /* \"#utility.yul\":11326:11327   */\n      0x01\n        /* \"#utility.yul\":11317:11324   */\n      dup3\n        /* \"#utility.yul\":11313:11328   */\n      add\n        /* \"#utility.yul\":11302:11328   */\n      swap2\n      pop\n        /* \"#utility.yul\":11224:11228   */\n      0x20\n        /* \"#utility.yul\":11221:11222   */\n      dup2\n        /* \"#utility.yul\":11217:11229   */\n      add\n        /* \"#utility.yul\":11212:11229   */\n      swap1\n      pop\n        /* \"#utility.yul\":11188:11342   */\n      jump(tag_199)\n    tag_201:\n        /* \"#utility.yul\":11371:11377   */\n      dup4\n        /* \"#utility.yul\":11366:11369   */\n      dup9\n        /* \"#utility.yul\":11362:11378   */\n      add\n        /* \"#utility.yul\":11355:11378   */\n      swap6\n      pop\n        /* \"#utility.yul\":11054:11388   */\n      pop\n      pop\n        /* \"#utility.yul\":10839:11388   */\n    tag_195:\n      pop\n        /* \"#utility.yul\":10627:11394   */\n      pop\n      pop\n        /* \"#utility.yul\":10520:11394   */\n      swap3\n      swap2\n      pop\n      pop\n      jump\t// out\n        /* \"#utility.yul\":11400:11669   */\n    tag_32:\n        /* \"#utility.yul\":11529:11532   */\n      0x00\n        /* \"#utility.yul\":11551:11643   */\n      tag_203\n        /* \"#utility.yul\":11639:11642   */\n      dup3\n        /* \"#utility.yul\":11630:11636   */\n      dup5\n        /* \"#utility.yul\":11551:11643   */\n      tag_71\n      jump\t// in\n    tag_203:\n        /* \"#utility.yul\":11544:11643   */\n      swap2\n      pop\n        /* \"#utility.yul\":11660:11663   */\n      dup2\n        /* \"#utility.yul\":11653:11663   */\n      swap1\n      pop\n        /* \"#utility.yul\":11400:11669   */\n      swap3\n      swap2\n      pop\n      pop\n      jump\t// out\n\n    auxdata: 0xa2646970667358221220882872d7a3b0481d0e532815172a6f12c0ec15061ca7f64a119bbd5bf646b25764736f6c63430008110033\n}\n",
				"bytecode": {
					"linkReferences": {},
					"object": "60806040526040518060400160405280600b81526020017f48656c6c6f20576f726c64000000000000000000000000000000000000000000815250600090816200004a9190620002d9565b503480156200005857600080fd5b50620003c0565b600081519050919050565b7f4e487b7100000000000000000000000000000000000000000000000000000000600052604160045260246000fd5b7f4e487b7100000000000000000000000000000000000000000000000000000000600052602260045260246000fd5b60006002820490506001821680620000e157607f821691505b602082108103620000f757620000f662000099565b5b50919050565b60008190508160005260206000209050919050565b60006020601f8301049050919050565b600082821b905092915050565b600060088302620001617fffffffffffffffffffffffffffffffffffffffffffffffffffffffffffffffff8262000122565b6200016d868362000122565b95508019841693508086168417925050509392505050565b6000819050919050565b6000819050919050565b6000620001ba620001b4620001ae8462000185565b6200018f565b62000185565b9050919050565b6000819050919050565b620001d68362000199565b620001ee620001e582620001c1565b8484546200012f565b825550505050565b600090565b62000205620001f6565b62000212818484620001cb565b505050565b5b818110156200023a576200022e600082620001fb565b60018101905062000218565b5050565b601f82111562000289576200025381620000fd565b6200025e8462000112565b810160208510156200026e578190505b620002866200027d8562000112565b83018262000217565b50505b505050565b600082821c905092915050565b6000620002ae600019846008026200028e565b1980831691505092915050565b6000620002c983836200029b565b9150826002028217905092915050565b620002e4826200005f565b67ffffffffffffffff8111156200030057620002ff6200006a565b5b6200030c8254620000c8565b620003198282856200023e565b600060209050601f8311600181146200035157600084156200033c578287015190505b620003488582620002bb565b865550620003b8565b601f1984166200036186620000fd565b60005b828110156200038b5784890151825560018201915060208501945060208101905062000364565b86831015620003ab5784890151620003a7601f8916826200029b565b8355505b6001600288020188555050505b505050505050565b61082f80620003d06000396000f3fe608060405234801561001057600080fd5b50600436106100415760003560e01c8063492bfa1814610046578063821805681461006457806398a365a914610080575b600080fd5b61004e6100b0565b60405161005b919061023a565b60405180910390f35b61007e600480360381019061007991906103a5565b61013e565b005b61009a600480360381019061009591906103a5565b610151565b6040516100a79190610409565b60405180910390f35b600080546100bd90610453565b80601f01602080910402602001604051908101604052809291908181526020018280546100e990610453565b80156101365780601f1061010b57610100808354040283529160200191610136565b820191906000526020600020905b81548152906001019060200180831161011957829003601f168201915b505050505081565b806000908161014d919061063a565b5050565b6000816040516020016101649190610748565b60405160208183030381529060405280519060200120600060405160200161018c91906107e2565b60405160208183030381529060405280519060200120149050919050565b600081519050919050565b600082825260208201905092915050565b60005b838110156101e45780820151818401526020810190506101c9565b60008484015250505050565b6000601f19601f8301169050919050565b600061020c826101aa565b61021681856101b5565b93506102268185602086016101c6565b61022f816101f0565b840191505092915050565b600060208201905081810360008301526102548184610201565b905092915050565b6000604051905090565b600080fd5b600080fd5b600080fd5b600080fd5b7f4e487b7100000000000000000000000000000000000000000000000000000000600052604160045260246000fd5b6102b2826101f0565b810181811067ffffffffffffffff821117156102d1576102d061027a565b5b80604052505050565b60006102e461025c565b90506102f082826102a9565b919050565b600067ffffffffffffffff8211156103105761030f61027a565b5b610319826101f0565b9050602081019050919050565b82818337600083830152505050565b6000610348610343846102f5565b6102da565b90508281526020810184848401111561036457610363610275565b5b61036f848285610326565b509392505050565b600082601f83011261038c5761038b610270565b5b813561039c848260208601610335565b91505092915050565b6000602082840312156103bb576103ba610266565b5b600082013567ffffffffffffffff8111156103d9576103d861026b565b5b6103e584828501610377565b91505092915050565b60008115159050919050565b610403816103ee565b82525050565b600060208201905061041e60008301846103fa565b92915050565b7f4e487b7100000000000000000000000000000000000000000000000000000000600052602260045260246000fd5b6000600282049050600182168061046b57607f821691505b60208210810361047e5761047d610424565b5b50919050565b60008190508160005260206000209050919050565b60006020601f8301049050919050565b600082821b905092915050565b6000600883026104e67fffffffffffffffffffffffffffffffffffffffffffffffffffffffffffffffff826104a9565b6104f086836104a9565b95508019841693508086168417925050509392505050565b6000819050919050565b6000819050919050565b600061053761053261052d84610508565b610512565b610508565b9050919050565b6000819050919050565b6105518361051c565b61056561055d8261053e565b8484546104b6565b825550505050565b600090565b61057a61056d565b610585818484610548565b505050565b5b818110156105a95761059e600082610572565b60018101905061058b565b5050565b601f8211156105ee576105bf81610484565b6105c884610499565b810160208510156105d7578190505b6105eb6105e385610499565b83018261058a565b50505b505050565b600082821c905092915050565b6000610611600019846008026105f3565b1980831691505092915050565b600061062a8383610600565b9150826002028217905092915050565b610643826101aa565b67ffffffffffffffff81111561065c5761065b61027a565b5b6106668254610453565b6106718282856105ad565b600060209050601f8311600181146106a45760008415610692578287015190505b61069c858261061e565b865550610704565b601f1984166106b286610484565b60005b828110156106da578489015182556001820191506020850194506020810190506106b5565b868310156106f757848901516106f3601f891682610600565b8355505b6001600288020188555050505b505050505050565b600081905092915050565b6000610722826101aa565b61072c818561070c565b935061073c8185602086016101c6565b80840191505092915050565b60006107548284610717565b915081905092915050565b6000815461076c81610453565b610776818661070c565b9450600182166000811461079157600181146107a6576107d9565b60ff19831686528115158202860193506107d9565b6107af85610484565b60005b838110156107d1578154818901526001820191506020810190506107b2565b838801955050505b50505092915050565b60006107ee828461075f565b91508190509291505056fea2646970667358221220882872d7a3b0481d0e532815172a6f12c0ec15061ca7f64a119bbd5bf646b25764736f6c63430008110033",
					"opcodes": "PUSH1 0x80 PUSH1 0x40 MSTORE PUSH1 0x40 MLOAD DUP1 PUSH1 0x40 ADD PUSH1 0x40 MSTORE DUP1 PUSH1 0xB DUP2 MSTORE PUSH1 0x20 ADD PUSH32 0x48656C6C6F20576F726C64000000000000000000000000000000000000000000 DUP2 MSTORE POP PUSH1 0x0 SWAP1 DUP2 PUSH3 0x4A SWAP2 SWAP1 PUSH3 0x2D9 JUMP JUMPDEST POP CALLVALUE DUP1 ISZERO PUSH3 0x58 JUMPI PUSH1 0x0 DUP1 REVERT JUMPDEST POP PUSH3 0x3C0 JUMP JUMPDEST PUSH1 0x0 DUP2 MLOAD SWAP1 POP SWAP2 SWAP1 POP JUMP JUMPDEST PUSH32 0x4E487B7100000000000000000000000000000000000000000000000000000000 PUSH1 0x0 MSTORE PUSH1 0x41 PUSH1 0x4 MSTORE PUSH1 0x24 PUSH1 0x0 REVERT JUMPDEST PUSH32 0x4E487B7100000000000000000000000000000000000000000000000000000000 PUSH1 0x0 MSTORE PUSH1 0x22 PUSH1 0x4 MSTORE PUSH1 0x24 PUSH1 0x0 REVERT JUMPDEST PUSH1 0x0 PUSH1 0x2 DUP3 DIV SWAP1 POP PUSH1 0x1 DUP3 AND DUP1 PUSH3 0xE1 JUMPI PUSH1 0x7F DUP3 AND SWAP2 POP JUMPDEST PUSH1 0x20 DUP3 LT DUP2 SUB PUSH3 0xF7 JUMPI PUSH3 0xF6 PUSH3 0x99 JUMP JUMPDEST JUMPDEST POP SWAP2 SWAP1 POP JUMP JUMPDEST PUSH1 0x0 DUP2 SWAP1 POP DUP2 PUSH1 0x0 MSTORE PUSH1 0x20 PUSH1 0x0 KECCAK256 SWAP1 POP SWAP2 SWAP1 POP JUMP JUMPDEST PUSH1 0x0 PUSH1 0x20 PUSH1 0x1F DUP4 ADD DIV SWAP1 POP SWAP2 SWAP1 POP JUMP JUMPDEST PUSH1 0x0 DUP3 DUP3 SHL SWAP1 POP SWAP3 SWAP2 POP POP JUMP JUMPDEST PUSH1 0x0 PUSH1 0x8 DUP4 MUL PUSH3 0x161 PUSH32 0xFFFFFFFFFFFFFFFFFFFFFFFFFFFFFFFFFFFFFFFFFFFFFFFFFFFFFFFFFFFFFFFF DUP3 PUSH3 0x122 JUMP JUMPDEST PUSH3 0x16D DUP7 DUP4 PUSH3 0x122 JUMP JUMPDEST SWAP6 POP DUP1 NOT DUP5 AND SWAP4 POP DUP1 DUP7 AND DUP5 OR SWAP3 POP POP POP SWAP4 SWAP3 POP POP POP JUMP JUMPDEST PUSH1 0x0 DUP2 SWAP1 POP SWAP2 SWAP1 POP JUMP JUMPDEST PUSH1 0x0 DUP2 SWAP1 POP SWAP2 SWAP1 POP JUMP JUMPDEST PUSH1 0x0 PUSH3 0x1BA PUSH3 0x1B4 PUSH3 0x1AE DUP5 PUSH3 0x185 JUMP JUMPDEST PUSH3 0x18F JUMP JUMPDEST PUSH3 0x185 JUMP JUMPDEST SWAP1 POP SWAP2 SWAP1 POP JUMP JUMPDEST PUSH1 0x0 DUP2 SWAP1 POP SWAP2 SWAP1 POP JUMP JUMPDEST PUSH3 0x1D6 DUP4 PUSH3 0x199 JUMP JUMPDEST PUSH3 0x1EE PUSH3 0x1E5 DUP3 PUSH3 0x1C1 JUMP JUMPDEST DUP5 DUP5 SLOAD PUSH3 0x12F JUMP JUMPDEST DUP3 SSTORE POP POP POP POP JUMP JUMPDEST PUSH1 0x0 SWAP1 JUMP JUMPDEST PUSH3 0x205 PUSH3 0x1F6 JUMP JUMPDEST PUSH3 0x212 DUP2 DUP5 DUP5 PUSH3 0x1CB JUMP JUMPDEST POP POP POP JUMP JUMPDEST JUMPDEST DUP2 DUP2 LT ISZERO PUSH3 0x23A JUMPI PUSH3 0x22E PUSH1 0x0 DUP3 PUSH3 0x1FB JUMP JUMPDEST PUSH1 0x1 DUP2 ADD SWAP1 POP PUSH3 0x218 JUMP JUMPDEST POP POP JUMP JUMPDEST PUSH1 0x1F DUP3 GT ISZERO PUSH3 0x289 JUMPI PUSH3 0x253 DUP2 PUSH3 0xFD JUMP JUMPDEST PUSH3 0x25E DUP5 PUSH3 0x112 JUMP JUMPDEST DUP2 ADD PUSH1 0x20 DUP6 LT ISZERO PUSH3 0x26E JUMPI DUP2 SWAP1 POP JUMPDEST PUSH3 0x286 PUSH3 0x27D DUP6 PUSH3 0x112 JUMP JUMPDEST DUP4 ADD DUP3 PUSH3 0x217 JUMP JUMPDEST POP POP JUMPDEST POP POP POP JUMP JUMPDEST PUSH1 0x0 DUP3 DUP3 SHR SWAP1 POP SWAP3 SWAP2 POP POP JUMP JUMPDEST PUSH1 0x0 PUSH3 0x2AE PUSH1 0x0 NOT DUP5 PUSH1 0x8 MUL PUSH3 0x28E JUMP JUMPDEST NOT DUP1 DUP4 AND SWAP2 POP POP SWAP3 SWAP2 POP POP JUMP JUMPDEST PUSH1 0x0 PUSH3 0x2C9 DUP4 DUP4 PUSH3 0x29B JUMP JUMPDEST SWAP2 POP DUP3 PUSH1 0x2 MUL DUP3 OR SWAP1 POP SWAP3 SWAP2 POP POP JUMP JUMPDEST PUSH3 0x2E4 DUP3 PUSH3 0x5F JUMP JUMPDEST PUSH8 0xFFFFFFFFFFFFFFFF DUP2 GT ISZERO PUSH3 0x300 JUMPI PUSH3 0x2FF PUSH3 0x6A JUMP JUMPDEST JUMPDEST PUSH3 0x30C DUP3 SLOAD PUSH3 0xC8 JUMP JUMPDEST PUSH3 0x319 DUP3 DUP3 DUP6 PUSH3 0x23E JUMP JUMPDEST PUSH1 0x0 PUSH1 0x20 SWAP1 POP PUSH1 0x1F DUP4 GT PUSH1 0x1 DUP2 EQ PUSH3 0x351 JUMPI PUSH1 0x0 DUP5 ISZERO PUSH3 0x33C JUMPI DUP3 DUP8 ADD MLOAD SWAP1 POP JUMPDEST PUSH3 0x348 DUP6 DUP3 PUSH3 0x2BB JUMP JUMPDEST DUP7 SSTORE POP PUSH3 0x3B8 JUMP JUMPDEST PUSH1 0x1F NOT DUP5 AND PUSH3 0x361 DUP7 PUSH3 0xFD JUMP JUMPDEST PUSH1 0x0 JUMPDEST DUP3 DUP2 LT ISZERO PUSH3 0x38B JUMPI DUP5 DUP10 ADD MLOAD DUP3 SSTORE PUSH1 0x1 DUP3 ADD SWAP2 POP PUSH1 0x20 DUP6 ADD SWAP5 POP PUSH1 0x20 DUP2 ADD SWAP1 POP PUSH3 0x364 JUMP JUMPDEST DUP7 DUP4 LT ISZERO PUSH3 0x3AB JUMPI DUP5 DUP10 ADD MLOAD PUSH3 0x3A7 PUSH1 0x1F DUP10 AND DUP3 PUSH3 0x29B JUMP JUMPDEST DUP4 SSTORE POP JUMPDEST PUSH1 0x1 PUSH1 0x2 DUP9 MUL ADD DUP9 SSTORE POP POP POP JUMPDEST POP POP POP POP POP POP JUMP JUMPDEST PUSH2 0x82F DUP1 PUSH3 0x3D0 PUSH1 0x0 CODECOPY PUSH1 0x0 RETURN INVALID PUSH1 0x80 PUSH1 0x40 MSTORE CALLVALUE DUP1 ISZERO PUSH2 0x10 JUMPI PUSH1 0x0 DUP1 REVERT JUMPDEST POP PUSH1 0x4 CALLDATASIZE LT PUSH2 0x41 JUMPI PUSH1 0x0 CALLDATALOAD PUSH1 0xE0 SHR DUP1 PUSH4 0x492BFA18 EQ PUSH2 0x46 JUMPI DUP1 PUSH4 0x82180568 EQ PUSH2 0x64 JUMPI DUP1 PUSH4 0x98A365A9 EQ PUSH2 0x80 JUMPI JUMPDEST PUSH1 0x0 DUP1 REVERT JUMPDEST PUSH2 0x4E PUSH2 0xB0 JUMP JUMPDEST PUSH1 0x40 MLOAD PUSH2 0x5B SWAP2 SWAP1 PUSH2 0x23A JUMP JUMPDEST PUSH1 0x40 MLOAD DUP1 SWAP2 SUB SWAP1 RETURN JUMPDEST PUSH2 0x7E PUSH1 0x4 DUP1 CALLDATASIZE SUB DUP2 ADD SWAP1 PUSH2 0x79 SWAP2 SWAP1 PUSH2 0x3A5 JUMP JUMPDEST PUSH2 0x13E JUMP JUMPDEST STOP JUMPDEST PUSH2 0x9A PUSH1 0x4 DUP1 CALLDATASIZE SUB DUP2 ADD SWAP1 PUSH2 0x95 SWAP2 SWAP1 PUSH2 0x3A5 JUMP JUMPDEST PUSH2 0x151 JUMP JUMPDEST PUSH1 0x40 MLOAD PUSH2 0xA7 SWAP2 SWAP1 PUSH2 0x409 JUMP JUMPDEST PUSH1 0x40 MLOAD DUP1 SWAP2 SUB SWAP1 RETURN JUMPDEST PUSH1 0x0 DUP1 SLOAD PUSH2 0xBD SWAP1 PUSH2 0x453 JUMP JUMPDEST DUP1 PUSH1 0x1F ADD PUSH1 0x20 DUP1 SWAP2 DIV MUL PUSH1 0x20 ADD PUSH1 0x40 MLOAD SWAP1 DUP2 ADD PUSH1 0x40 MSTORE DUP1 SWAP3 SWAP2 SWAP1 DUP2 DUP2 MSTORE PUSH1 0x20 ADD DUP3 DUP1 SLOAD PUSH2 0xE9 SWAP1 PUSH2 0x453 JUMP JUMPDEST DUP1 ISZERO PUSH2 0x136 JUMPI DUP1 PUSH1 0x1F LT PUSH2 0x10B JUMPI PUSH2 0x100 DUP1 DUP4 SLOAD DIV MUL DUP4 MSTORE SWAP2 PUSH1 0x20 ADD SWAP2 PUSH2 0x136 JUMP JUMPDEST DUP3 ADD SWAP2 SWAP1 PUSH1 0x0 MSTORE PUSH1 0x20 PUSH1 0x0 KECCAK256 SWAP1 JUMPDEST DUP2 SLOAD DUP2 MSTORE SWAP1 PUSH1 0x1 ADD SWAP1 PUSH1 0x20 ADD DUP1 DUP4 GT PUSH2 0x119 JUMPI DUP3 SWAP1 SUB PUSH1 0x1F AND DUP3 ADD SWAP2 JUMPDEST POP POP POP POP POP DUP2 JUMP JUMPDEST DUP1 PUSH1 0x0 SWAP1 DUP2 PUSH2 0x14D SWAP2 SWAP1 PUSH2 0x63A JUMP JUMPDEST POP POP JUMP JUMPDEST PUSH1 0x0 DUP2 PUSH1 0x40 MLOAD PUSH1 0x20 ADD PUSH2 0x164 SWAP2 SWAP1 PUSH2 0x748 JUMP JUMPDEST PUSH1 0x40 MLOAD PUSH1 0x20 DUP2 DUP4 SUB SUB DUP2 MSTORE SWAP1 PUSH1 0x40 MSTORE DUP1 MLOAD SWAP1 PUSH1 0x20 ADD KECCAK256 PUSH1 0x0 PUSH1 0x40 MLOAD PUSH1 0x20 ADD PUSH2 0x18C SWAP2 SWAP1 PUSH2 0x7E2 JUMP JUMPDEST PUSH1 0x40 MLOAD PUSH1 0x20 DUP2 DUP4 SUB SUB DUP2 MSTORE SWAP1 PUSH1 0x40 MSTORE DUP1 MLOAD SWAP1 PUSH1 0x20 ADD KECCAK256 EQ SWAP1 POP SWAP2 SWAP1 POP JUMP JUMPDEST PUSH1 0x0 DUP2 MLOAD SWAP1 POP SWAP2 SWAP1 POP JUMP JUMPDEST PUSH1 0x0 DUP3 DUP3 MSTORE PUSH1 0x20 DUP3 ADD SWAP1 POP SWAP3 SWAP2 POP POP JUMP JUMPDEST PUSH1 0x0 JUMPDEST DUP4 DUP2 LT ISZERO PUSH2 0x1E4 JUMPI DUP1 DUP3 ADD MLOAD DUP2 DUP5 ADD MSTORE PUSH1 0x20 DUP2 ADD SWAP1 POP PUSH2 0x1C9 JUMP JUMPDEST PUSH1 0x0 DUP5 DUP5 ADD MSTORE POP POP POP POP JUMP JUMPDEST PUSH1 0x0 PUSH1 0x1F NOT PUSH1 0x1F DUP4 ADD AND SWAP1 POP SWAP2 SWAP1 POP JUMP JUMPDEST PUSH1 0x0 PUSH2 0x20C DUP3 PUSH2 0x1AA JUMP JUMPDEST PUSH2 0x216 DUP2 DUP6 PUSH2 0x1B5 JUMP JUMPDEST SWAP4 POP PUSH2 0x226 DUP2 DUP6 PUSH1 0x20 DUP7 ADD PUSH2 0x1C6 JUMP JUMPDEST PUSH2 0x22F DUP2 PUSH2 0x1F0 JUMP JUMPDEST DUP5 ADD SWAP2 POP POP SWAP3 SWAP2 POP POP JUMP JUMPDEST PUSH1 0x0 PUSH1 0x20 DUP3 ADD SWAP1 POP DUP2 DUP2 SUB PUSH1 0x0 DUP4 ADD MSTORE PUSH2 0x254 DUP2 DUP5 PUSH2 0x201 JUMP JUMPDEST SWAP1 POP SWAP3 SWAP2 POP POP JUMP JUMPDEST PUSH1 0x0 PUSH1 0x40 MLOAD SWAP1 POP SWAP1 JUMP JUMPDEST PUSH1 0x0 DUP1 REVERT JUMPDEST PUSH1 0x0 DUP1 REVERT JUMPDEST PUSH1 0x0 DUP1 REVERT JUMPDEST PUSH1 0x0 DUP1 REVERT JUMPDEST PUSH32 0x4E487B7100000000000000000000000000000000000000000000000000000000 PUSH1 0x0 MSTORE PUSH1 0x41 PUSH1 0x4 MSTORE PUSH1 0x24 PUSH1 0x0 REVERT JUMPDEST PUSH2 0x2B2 DUP3 PUSH2 0x1F0 JUMP JUMPDEST DUP2 ADD DUP2 DUP2 LT PUSH8 0xFFFFFFFFFFFFFFFF DUP3 GT OR ISZERO PUSH2 0x2D1 JUMPI PUSH2 0x2D0 PUSH2 0x27A JUMP JUMPDEST JUMPDEST DUP1 PUSH1 0x40 MSTORE POP POP POP JUMP JUMPDEST PUSH1 0x0 PUSH2 0x2E4 PUSH2 0x25C JUMP JUMPDEST SWAP1 POP PUSH2 0x2F0 DUP3 DUP3 PUSH2 0x2A9 JUMP JUMPDEST SWAP2 SWAP1 POP JUMP JUMPDEST PUSH1 0x0 PUSH8 0xFFFFFFFFFFFFFFFF DUP3 GT ISZERO PUSH2 0x310 JUMPI PUSH2 0x30F PUSH2 0x27A JUMP JUMPDEST JUMPDEST PUSH2 0x319 DUP3 PUSH2 0x1F0 JUMP JUMPDEST SWAP1 POP PUSH1 0x20 DUP2 ADD SWAP1 POP SWAP2 SWAP1 POP JUMP JUMPDEST DUP3 DUP2 DUP4 CALLDATACOPY PUSH1 0x0 DUP4 DUP4 ADD MSTORE POP POP POP JUMP JUMPDEST PUSH1 0x0 PUSH2 0x348 PUSH2 0x343 DUP5 PUSH2 0x2F5 JUMP JUMPDEST PUSH2 0x2DA JUMP JUMPDEST SWAP1 POP DUP3 DUP2 MSTORE PUSH1 0x20 DUP2 ADD DUP5 DUP5 DUP5 ADD GT ISZERO PUSH2 0x364 JUMPI PUSH2 0x363 PUSH2 0x275 JUMP JUMPDEST JUMPDEST PUSH2 0x36F DUP5 DUP3 DUP6 PUSH2 0x326 JUMP JUMPDEST POP SWAP4 SWAP3 POP POP POP JUMP JUMPDEST PUSH1 0x0 DUP3 PUSH1 0x1F DUP4 ADD SLT PUSH2 0x38C JUMPI PUSH2 0x38B PUSH2 0x270 JUMP JUMPDEST JUMPDEST DUP2 CALLDATALOAD PUSH2 0x39C DUP5 DUP3 PUSH1 0x20 DUP7 ADD PUSH2 0x335 JUMP JUMPDEST SWAP2 POP POP SWAP3 SWAP2 POP POP JUMP JUMPDEST PUSH1 0x0 PUSH1 0x20 DUP3 DUP5 SUB SLT ISZERO PUSH2 0x3BB JUMPI PUSH2 0x3BA PUSH2 0x266 JUMP JUMPDEST JUMPDEST PUSH1 0x0 DUP3 ADD CALLDATALOAD PUSH8 0xFFFFFFFFFFFFFFFF DUP2 GT ISZERO PUSH2 0x3D9 JUMPI PUSH2 0x3D8 PUSH2 0x26B JUMP JUMPDEST JUMPDEST PUSH2 0x3E5 DUP5 DUP3 DUP6 ADD PUSH2 0x377 JUMP JUMPDEST SWAP2 POP POP SWAP3 SWAP2 POP POP JUMP JUMPDEST PUSH1 0x0 DUP2 ISZERO ISZERO SWAP1 POP SWAP2 SWAP1 POP JUMP JUMPDEST PUSH2 0x403 DUP2 PUSH2 0x3EE JUMP JUMPDEST DUP3 MSTORE POP POP JUMP JUMPDEST PUSH1 0x0 PUSH1 0x20 DUP3 ADD SWAP1 POP PUSH2 0x41E PUSH1 0x0 DUP4 ADD DUP5 PUSH2 0x3FA JUMP JUMPDEST SWAP3 SWAP2 POP POP JUMP JUMPDEST PUSH32 0x4E487B7100000000000000000000000000000000000000000000000000000000 PUSH1 0x0 MSTORE PUSH1 0x22 PUSH1 0x4 MSTORE PUSH1 0x24 PUSH1 0x0 REVERT JUMPDEST PUSH1 0x0 PUSH1 0x2 DUP3 DIV SWAP1 POP PUSH1 0x1 DUP3 AND DUP1 PUSH2 0x46B JUMPI PUSH1 0x7F DUP3 AND SWAP2 POP JUMPDEST PUSH1 0x20 DUP3 LT DUP2 SUB PUSH2 0x47E JUMPI PUSH2 0x47D PUSH2 0x424 JUMP JUMPDEST JUMPDEST POP SWAP2 SWAP1 POP JUMP JUMPDEST PUSH1 0x0 DUP2 SWAP1 POP DUP2 PUSH1 0x0 MSTORE PUSH1 0x20 PUSH1 0x0 KECCAK256 SWAP1 POP SWAP2 SWAP1 POP JUMP JUMPDEST PUSH1 0x0 PUSH1 0x20 PUSH1 0x1F DUP4 ADD DIV SWAP1 POP SWAP2 SWAP1 POP JUMP JUMPDEST PUSH1 0x0 DUP3 DUP3 SHL SWAP1 POP SWAP3 SWAP2 POP POP JUMP JUMPDEST PUSH1 0x0 PUSH1 0x8 DUP4 MUL PUSH2 0x4E6 PUSH32 0xFFFFFFFFFFFFFFFFFFFFFFFFFFFFFFFFFFFFFFFFFFFFFFFFFFFFFFFFFFFFFFFF DUP3 PUSH2 0x4A9 JUMP JUMPDEST PUSH2 0x4F0 DUP7 DUP4 PUSH2 0x4A9 JUMP JUMPDEST SWAP6 POP DUP1 NOT DUP5 AND SWAP4 POP DUP1 DUP7 AND DUP5 OR SWAP3 POP POP POP SWAP4 SWAP3 POP POP POP JUMP JUMPDEST PUSH1 0x0 DUP2 SWAP1 POP SWAP2 SWAP1 POP JUMP JUMPDEST PUSH1 0x0 DUP2 SWAP1 POP SWAP2 SWAP1 POP JUMP JUMPDEST PUSH1 0x0 PUSH2 0x537 PUSH2 0x532 PUSH2 0x52D DUP5 PUSH2 0x508 JUMP JUMPDEST PUSH2 0x512 JUMP JUMPDEST PUSH2 0x508 JUMP JUMPDEST SWAP1 POP SWAP2 SWAP1 POP JUMP JUMPDEST PUSH1 0x0 DUP2 SWAP1 POP SWAP2 SWAP1 POP JUMP JUMPDEST PUSH2 0x551 DUP4 PUSH2 0x51C JUMP JUMPDEST PUSH2 0x565 PUSH2 0x55D DUP3 PUSH2 0x53E JUMP JUMPDEST DUP5 DUP5 SLOAD PUSH2 0x4B6 JUMP JUMPDEST DUP3 SSTORE POP POP POP POP JUMP JUMPDEST PUSH1 0x0 SWAP1 JUMP JUMPDEST PUSH2 0x57A PUSH2 0x56D JUMP JUMPDEST PUSH2 0x585 DUP2 DUP5 DUP5 PUSH2 0x548 JUMP JUMPDEST POP POP POP JUMP JUMPDEST JUMPDEST DUP2 DUP2 LT ISZERO PUSH2 0x5A9 JUMPI PUSH2 0x59E PUSH1 0x0 DUP3 PUSH2 0x572 JUMP JUMPDEST PUSH1 0x1 DUP2 ADD SWAP1 POP PUSH2 0x58B JUMP JUMPDEST POP POP JUMP JUMPDEST PUSH1 0x1F DUP3 GT ISZERO PUSH2 0x5EE JUMPI PUSH2 0x5BF DUP2 PUSH2 0x484 JUMP JUMPDEST PUSH2 0x5C8 DUP5 PUSH2 0x499 JUMP JUMPDEST DUP2 ADD PUSH1 0x20 DUP6 LT ISZERO PUSH2 0x5D7 JUMPI DUP2 SWAP1 POP JUMPDEST PUSH2 0x5EB PUSH2 0x5E3 DUP6 PUSH2 0x499 JUMP JUMPDEST DUP4 ADD DUP3 PUSH2 0x58A JUMP JUMPDEST POP POP JUMPDEST POP POP POP JUMP JUMPDEST PUSH1 0x0 DUP3 DUP3 SHR SWAP1 POP SWAP3 SWAP2 POP POP JUMP JUMPDEST PUSH1 0x0 PUSH2 0x611 PUSH1 0x0 NOT DUP5 PUSH1 0x8 MUL PUSH2 0x5F3 JUMP JUMPDEST NOT DUP1 DUP4 AND SWAP2 POP POP SWAP3 SWAP2 POP POP JUMP JUMPDEST PUSH1 0x0 PUSH2 0x62A DUP4 DUP4 PUSH2 0x600 JUMP JUMPDEST SWAP2 POP DUP3 PUSH1 0x2 MUL DUP3 OR SWAP1 POP SWAP3 SWAP2 POP POP JUMP JUMPDEST PUSH2 0x643 DUP3 PUSH2 0x1AA JUMP JUMPDEST PUSH8 0xFFFFFFFFFFFFFFFF DUP2 GT ISZERO PUSH2 0x65C JUMPI PUSH2 0x65B PUSH2 0x27A JUMP JUMPDEST JUMPDEST PUSH2 0x666 DUP3 SLOAD PUSH2 0x453 JUMP JUMPDEST PUSH2 0x671 DUP3 DUP3 DUP6 PUSH2 0x5AD JUMP JUMPDEST PUSH1 0x0 PUSH1 0x20 SWAP1 POP PUSH1 0x1F DUP4 GT PUSH1 0x1 DUP2 EQ PUSH2 0x6A4 JUMPI PUSH1 0x0 DUP5 ISZERO PUSH2 0x692 JUMPI DUP3 DUP8 ADD MLOAD SWAP1 POP JUMPDEST PUSH2 0x69C DUP6 DUP3 PUSH2 0x61E JUMP JUMPDEST DUP7 SSTORE POP PUSH2 0x704 JUMP JUMPDEST PUSH1 0x1F NOT DUP5 AND PUSH2 0x6B2 DUP7 PUSH2 0x484 JUMP JUMPDEST PUSH1 0x0 JUMPDEST DUP3 DUP2 LT ISZERO PUSH2 0x6DA JUMPI DUP5 DUP10 ADD MLOAD DUP3 SSTORE PUSH1 0x1 DUP3 ADD SWAP2 POP PUSH1 0x20 DUP6 ADD SWAP5 POP PUSH1 0x20 DUP2 ADD SWAP1 POP PUSH2 0x6B5 JUMP JUMPDEST DUP7 DUP4 LT ISZERO PUSH2 0x6F7 JUMPI DUP5 DUP10 ADD MLOAD PUSH2 0x6F3 PUSH1 0x1F DUP10 AND DUP3 PUSH2 0x600 JUMP JUMPDEST DUP4 SSTORE POP JUMPDEST PUSH1 0x1 PUSH1 0x2 DUP9 MUL ADD DUP9 SSTORE POP POP POP JUMPDEST POP POP POP POP POP POP JUMP JUMPDEST PUSH1 0x0 DUP2 SWAP1 POP SWAP3 SWAP2 POP POP JUMP JUMPDEST PUSH1 0x0 PUSH2 0x722 DUP3 PUSH2 0x1AA JUMP JUMPDEST PUSH2 0x72C DUP2 DUP6 PUSH2 0x70C JUMP JUMPDEST SWAP4 POP PUSH2 0x73C DUP2 DUP6 PUSH1 0x20 DUP7 ADD PUSH2 0x1C6 JUMP JUMPDEST DUP1 DUP5 ADD SWAP2 POP POP SWAP3 SWAP2 POP POP JUMP JUMPDEST PUSH1 0x0 PUSH2 0x754 DUP3 DUP5 PUSH2 0x717 JUMP JUMPDEST SWAP2 POP DUP2 SWAP1 POP SWAP3 SWAP2 POP POP JUMP JUMPDEST PUSH1 0x0 DUP2 SLOAD PUSH2 0x76C DUP2 PUSH2 0x453 JUMP JUMPDEST PUSH2 0x776 DUP2 DUP7 PUSH2 0x70C JUMP JUMPDEST SWAP5 POP PUSH1 0x1 DUP3 AND PUSH1 0x0 DUP2 EQ PUSH2 0x791 JUMPI PUSH1 0x1 DUP2 EQ PUSH2 0x7A6 JUMPI PUSH2 0x7D9 JUMP JUMPDEST PUSH1 0xFF NOT DUP4 AND DUP7 MSTORE DUP2 ISZERO ISZERO DUP3 MUL DUP7 ADD SWAP4 POP PUSH2 0x7D9 JUMP JUMPDEST PUSH2 0x7AF DUP6 PUSH2 0x484 JUMP JUMPDEST PUSH1 0x0 JUMPDEST DUP4 DUP2 LT ISZERO PUSH2 0x7D1 JUMPI DUP2 SLOAD DUP2 DUP10 ADD MSTORE PUSH1 0x1 DUP3 ADD SWAP2 POP PUSH1 0x20 DUP2 ADD SWAP1 POP PUSH2 0x7B2 JUMP JUMPDEST DUP4 DUP9 ADD SWAP6 POP POP POP JUMPDEST POP POP POP SWAP3 SWAP2 POP POP JUMP JUMPDEST PUSH1 0x0 PUSH2 0x7EE DUP3 DUP5 PUSH2 0x75F JUMP JUMPDEST SWAP2 POP DUP2 SWAP1 POP SWAP3 SWAP2 POP POP JUMP INVALID LOG2 PUSH5 0x6970667358 0x22 SLT KECCAK256 DUP9 0x28 PUSH19 0xD7A3B0481D0E532815172A6F12C0EC15061CA7 0xF6 0x4A GT SWAP12 0xBD JUMPDEST 0xF6 CHAINID 0xB2 JUMPI PUSH5 0x736F6C6343 STOP ADDMOD GT STOP CALLER "
				},
				"gasEstimates": {
					"creation": {
						"codeDepositCost": "419000",
						"executionCost": "infinite",
						"totalCost": "infinite"
					},
					"external": {
						"myString()": "infinite",
						"setMyString(string)": "infinite",
						"stringCompare(string)": "infinite"
					}
				},
				"methodIdentifiers": {
					"myString()": "492bfa18",
					"setMyString(string)": "82180568",
					"stringCompare(string)": "98a365a9"
				}
			},
			"storageLayout": {
				"storage": [
					{
						"astId": 4,
						"contract": "contracts/Examples/ExampleString.sol:ExampleString",
						"label": "myString",
						"offset": 0,
						"slot": "0",
						"type": "t_string_storage"
					}
				],
				"types": {
					"t_string_storage": {
						"encoding": "bytes",
						"label": "string",
						"numberOfBytes": "32"
					}
				}
			},
			"userdoc": {
				"kind": "user",
				"methods": {},
				"version": 1
			}
		}
	}
}